{
	"contracts/1_Storage.sol": {
		"RewardDistributor": {
			"abi": [
				{
					"inputs": [],
					"stateMutability": "nonpayable",
					"type": "constructor"
				},
				{
					"anonymous": false,
					"inputs": [
						{
							"indexed": false,
							"internalType": "address",
							"name": "tokenAddress",
							"type": "address"
						},
						{
							"indexed": false,
							"internalType": "address",
							"name": "to",
							"type": "address"
						},
						{
							"indexed": false,
							"internalType": "uint256",
							"name": "balance",
							"type": "uint256"
						},
						{
							"indexed": false,
							"internalType": "uint256",
							"name": "amount",
							"type": "uint256"
						}
					],
					"name": "DebugLog",
					"type": "event"
				},
				{
					"inputs": [],
					"name": "admin",
					"outputs": [
						{
							"internalType": "address",
							"name": "",
							"type": "address"
						}
					],
					"stateMutability": "view",
					"type": "function"
				},
				{
					"inputs": [
						{
							"components": [
								{
									"internalType": "address",
									"name": "tokenAddress",
									"type": "address"
								},
								{
									"internalType": "uint256",
									"name": "amount",
									"type": "uint256"
								}
							],
							"internalType": "struct RewardDistributor.ReceiverInfo[]",
							"name": "receiverInfos",
							"type": "tuple[]"
						},
						{
							"internalType": "address",
							"name": "to",
							"type": "address"
						}
					],
					"name": "distribute",
					"outputs": [],
					"stateMutability": "nonpayable",
					"type": "function"
				},
				{
					"inputs": [
						{
							"internalType": "address",
							"name": "newAdmin",
							"type": "address"
						}
					],
					"name": "setAdmin",
					"outputs": [],
					"stateMutability": "nonpayable",
					"type": "function"
				}
			],
			"devdoc": {
				"kind": "dev",
				"methods": {},
				"version": 1
			},
			"evm": {
				"assembly": "    /* \"contracts/1_Storage.sol\":251:3604  contract RewardDistributor {... */\n  mstore(0x40, 0x80)\n    /* \"contracts/1_Storage.sol\":336:431  constructor() {... */\n  callvalue\n  dup1\n  iszero\n  tag_1\n  jumpi\n  0x00\n  dup1\n  revert\ntag_1:\n  pop\n    /* \"contracts/1_Storage.sol\":368:378  msg.sender */\n  caller\n    /* \"contracts/1_Storage.sol\":360:365  admin */\n  0x00\n  dup1\n    /* \"contracts/1_Storage.sol\":360:378  admin = msg.sender */\n  0x0100\n  exp\n  dup2\n  sload\n  dup2\n  0xffffffffffffffffffffffffffffffffffffffff\n  mul\n  not\n  and\n  swap1\n  dup4\n  0xffffffffffffffffffffffffffffffffffffffff\n  and\n  mul\n  or\n  swap1\n  sstore\n  pop\n    /* \"contracts/1_Storage.sol\":251:3604  contract RewardDistributor {... */\n  dataSize(sub_0)\n  dup1\n  dataOffset(sub_0)\n  0x00\n  codecopy\n  0x00\n  return\nstop\n\nsub_0: assembly {\n        /* \"contracts/1_Storage.sol\":251:3604  contract RewardDistributor {... */\n      mstore(0x40, 0x80)\n      callvalue\n      dup1\n      iszero\n      tag_1\n      jumpi\n      0x00\n      dup1\n      revert\n    tag_1:\n      pop\n      jumpi(tag_2, lt(calldatasize, 0x04))\n      shr(0xe0, calldataload(0x00))\n      dup1\n      0x696d91b3\n      eq\n      tag_3\n      jumpi\n      dup1\n      0x704b6c02\n      eq\n      tag_4\n      jumpi\n      dup1\n      0xf851a440\n      eq\n      tag_5\n      jumpi\n    tag_2:\n      0x00\n      dup1\n      revert\n        /* \"contracts/1_Storage.sol\":1151:2479  function distribute(ReceiverInfo[] calldata receiverInfos, address to)... */\n    tag_3:\n      tag_6\n      0x04\n      dup1\n      calldatasize\n      sub\n      dup2\n      add\n      swap1\n      tag_7\n      swap2\n      swap1\n      tag_8\n      jump\t// in\n    tag_7:\n      tag_9\n      jump\t// in\n    tag_6:\n      stop\n        /* \"contracts/1_Storage.sol\":703:860  function setAdmin(address newAdmin) public onlyAdmin {... */\n    tag_4:\n      tag_10\n      0x04\n      dup1\n      calldatasize\n      sub\n      dup2\n      add\n      swap1\n      tag_11\n      swap2\n      swap1\n      tag_12\n      jump\t// in\n    tag_11:\n      tag_13\n      jump\t// in\n    tag_10:\n      stop\n        /* \"contracts/1_Storage.sol\":284:304  address public admin */\n    tag_5:\n      tag_14\n      tag_15\n      jump\t// in\n    tag_14:\n      mload(0x40)\n      tag_16\n      swap2\n      swap1\n      tag_17\n      jump\t// in\n    tag_16:\n      mload(0x40)\n      dup1\n      swap2\n      sub\n      swap1\n      return\n        /* \"contracts/1_Storage.sol\":1151:2479  function distribute(ReceiverInfo[] calldata receiverInfos, address to)... */\n    tag_9:\n        /* \"contracts/1_Storage.sol\":635:640  admin */\n      0x00\n      dup1\n      sload\n      swap1\n      0x0100\n      exp\n      swap1\n      div\n      0xffffffffffffffffffffffffffffffffffffffff\n      and\n        /* \"contracts/1_Storage.sol\":621:640  msg.sender == admin */\n      0xffffffffffffffffffffffffffffffffffffffff\n      and\n        /* \"contracts/1_Storage.sol\":621:631  msg.sender */\n      caller\n        /* \"contracts/1_Storage.sol\":621:640  msg.sender == admin */\n      0xffffffffffffffffffffffffffffffffffffffff\n      and\n      eq\n        /* \"contracts/1_Storage.sol\":613:679  require(msg.sender == admin, \"Only admin can call this function.\") */\n      tag_19\n      jumpi\n      mload(0x40)\n      0x08c379a000000000000000000000000000000000000000000000000000000000\n      dup2\n      mstore\n      0x04\n      add\n      tag_20\n      swap1\n      tag_21\n      jump\t// in\n    tag_20:\n      mload(0x40)\n      dup1\n      swap2\n      sub\n      swap1\n      revert\n    tag_19:\n        /* \"contracts/1_Storage.sol\":1295:1304  uint256 i */\n      0x00\n        /* \"contracts/1_Storage.sol\":1290:1858  for (uint256 i = 0; i < receiverInfos.length; i++) {... */\n    tag_23:\n        /* \"contracts/1_Storage.sol\":1314:1327  receiverInfos */\n      dup4\n      dup4\n        /* \"contracts/1_Storage.sol\":1314:1334  receiverInfos.length */\n      swap1\n      pop\n        /* \"contracts/1_Storage.sol\":1310:1311  i */\n      dup2\n        /* \"contracts/1_Storage.sol\":1310:1334  i < receiverInfos.length */\n      lt\n        /* \"contracts/1_Storage.sol\":1290:1858  for (uint256 i = 0; i < receiverInfos.length; i++) {... */\n      iszero\n      tag_24\n      jumpi\n        /* \"contracts/1_Storage.sol\":1355:1375  address tokenAddress */\n      0x00\n        /* \"contracts/1_Storage.sol\":1378:1391  receiverInfos */\n      dup5\n      dup5\n        /* \"contracts/1_Storage.sol\":1392:1393  i */\n      dup4\n        /* \"contracts/1_Storage.sol\":1378:1394  receiverInfos[i] */\n      dup2\n      dup2\n      lt\n      tag_26\n      jumpi\n      tag_27\n      tag_28\n      jump\t// in\n    tag_27:\n    tag_26:\n      swap1\n      pop\n      0x40\n      mul\n      add\n        /* \"contracts/1_Storage.sol\":1378:1407  receiverInfos[i].tokenAddress */\n      0x00\n      add\n      0x20\n      dup2\n      add\n      swap1\n      tag_29\n      swap2\n      swap1\n      tag_12\n      jump\t// in\n    tag_29:\n        /* \"contracts/1_Storage.sol\":1355:1407  address tokenAddress = receiverInfos[i].tokenAddress */\n      swap1\n      pop\n        /* \"contracts/1_Storage.sol\":1421:1435  uint256 amount */\n      0x00\n        /* \"contracts/1_Storage.sol\":1438:1451  receiverInfos */\n      dup6\n      dup6\n        /* \"contracts/1_Storage.sol\":1452:1453  i */\n      dup5\n        /* \"contracts/1_Storage.sol\":1438:1454  receiverInfos[i] */\n      dup2\n      dup2\n      lt\n      tag_30\n      jumpi\n      tag_31\n      tag_28\n      jump\t// in\n    tag_31:\n    tag_30:\n      swap1\n      pop\n      0x40\n      mul\n      add\n        /* \"contracts/1_Storage.sol\":1438:1461  receiverInfos[i].amount */\n      0x20\n      add\n      calldataload\n        /* \"contracts/1_Storage.sol\":1421:1461  uint256 amount = receiverInfos[i].amount */\n      swap1\n      pop\n        /* \"contracts/1_Storage.sol\":1508:1509  0 */\n      0x00\n        /* \"contracts/1_Storage.sol\":1484:1510  tokenAddress != address(0) */\n      0xffffffffffffffffffffffffffffffffffffffff\n      and\n        /* \"contracts/1_Storage.sol\":1484:1496  tokenAddress */\n      dup3\n        /* \"contracts/1_Storage.sol\":1484:1510  tokenAddress != address(0) */\n      0xffffffffffffffffffffffffffffffffffffffff\n      and\n      sub\n        /* \"contracts/1_Storage.sol\":1476:1537  require(tokenAddress != address(0), \"Invalid token address.\") */\n      tag_32\n      jumpi\n      mload(0x40)\n      0x08c379a000000000000000000000000000000000000000000000000000000000\n      dup2\n      mstore\n      0x04\n      add\n      tag_33\n      swap1\n      tag_34\n      jump\t// in\n    tag_33:\n      mload(0x40)\n      dup1\n      swap2\n      sub\n      swap1\n      revert\n    tag_32:\n        /* \"contracts/1_Storage.sol\":1568:1569  0 */\n      0x00\n        /* \"contracts/1_Storage.sol\":1559:1565  amount */\n      dup2\n        /* \"contracts/1_Storage.sol\":1559:1569  amount > 0 */\n      gt\n        /* \"contracts/1_Storage.sol\":1551:1589  require(amount > 0, \"Invalid amount.\") */\n      tag_35\n      jumpi\n      mload(0x40)\n      0x08c379a000000000000000000000000000000000000000000000000000000000\n      dup2\n      mstore\n      0x04\n      add\n      tag_36\n      swap1\n      tag_37\n      jump\t// in\n    tag_36:\n      mload(0x40)\n      dup1\n      swap2\n      sub\n      swap1\n      revert\n    tag_35:\n        /* \"contracts/1_Storage.sol\":1633:1648  uint256 balance */\n      0x00\n        /* \"contracts/1_Storage.sol\":1651:1679  balanceOfToken(tokenAddress) */\n      tag_38\n        /* \"contracts/1_Storage.sol\":1666:1678  tokenAddress */\n      dup4\n        /* \"contracts/1_Storage.sol\":1651:1665  balanceOfToken */\n      tag_39\n        /* \"contracts/1_Storage.sol\":1651:1679  balanceOfToken(tokenAddress) */\n      jump\t// in\n    tag_38:\n        /* \"contracts/1_Storage.sol\":1633:1679  uint256 balance = balanceOfToken(tokenAddress) */\n      swap1\n      pop\n        /* \"contracts/1_Storage.sol\":1739:1782  DebugLog(tokenAddress, to, balance, amount) */\n      0x205f2aa8b8e5c1833d51be8c38a914476253c19ae627270a65c00878a095afef\n        /* \"contracts/1_Storage.sol\":1748:1760  tokenAddress */\n      dup4\n        /* \"contracts/1_Storage.sol\":1762:1764  to */\n      dup7\n        /* \"contracts/1_Storage.sol\":1766:1773  balance */\n      dup4\n        /* \"contracts/1_Storage.sol\":1775:1781  amount */\n      dup6\n        /* \"contracts/1_Storage.sol\":1739:1782  DebugLog(tokenAddress, to, balance, amount) */\n      mload(0x40)\n      tag_40\n      swap5\n      swap4\n      swap3\n      swap2\n      swap1\n      tag_41\n      jump\t// in\n    tag_40:\n      mload(0x40)\n      dup1\n      swap2\n      sub\n      swap1\n      log1\n        /* \"contracts/1_Storage.sol\":1815:1821  amount */\n      dup2\n        /* \"contracts/1_Storage.sol\":1804:1811  balance */\n      dup2\n        /* \"contracts/1_Storage.sol\":1804:1821  balance >= amount */\n      lt\n      iszero\n        /* \"contracts/1_Storage.sol\":1796:1847  require(balance >= amount, \"Insufficient balance.\") */\n      tag_42\n      jumpi\n      mload(0x40)\n      0x08c379a000000000000000000000000000000000000000000000000000000000\n      dup2\n      mstore\n      0x04\n      add\n      tag_43\n      swap1\n      tag_44\n      jump\t// in\n    tag_43:\n      mload(0x40)\n      dup1\n      swap2\n      sub\n      swap1\n      revert\n    tag_42:\n        /* \"contracts/1_Storage.sol\":1341:1858  {... */\n      pop\n      pop\n      pop\n        /* \"contracts/1_Storage.sol\":1336:1339  i++ */\n      dup1\n      dup1\n      0x01\n      add\n      swap2\n      pop\n      pop\n        /* \"contracts/1_Storage.sol\":1290:1858  for (uint256 i = 0; i < receiverInfos.length; i++) {... */\n      jump(tag_23)\n    tag_24:\n      pop\n        /* \"contracts/1_Storage.sol\":1893:1902  uint256 i */\n      0x00\n        /* \"contracts/1_Storage.sol\":1888:2473  for (uint256 i = 0; i < receiverInfos.length; i++) {... */\n    tag_45:\n        /* \"contracts/1_Storage.sol\":1912:1925  receiverInfos */\n      dup4\n      dup4\n        /* \"contracts/1_Storage.sol\":1912:1932  receiverInfos.length */\n      swap1\n      pop\n        /* \"contracts/1_Storage.sol\":1908:1909  i */\n      dup2\n        /* \"contracts/1_Storage.sol\":1908:1932  i < receiverInfos.length */\n      lt\n        /* \"contracts/1_Storage.sol\":1888:2473  for (uint256 i = 0; i < receiverInfos.length; i++) {... */\n      iszero\n      tag_46\n      jumpi\n        /* \"contracts/1_Storage.sol\":1953:1973  address tokenAddress */\n      0x00\n        /* \"contracts/1_Storage.sol\":1976:1989  receiverInfos */\n      dup5\n      dup5\n        /* \"contracts/1_Storage.sol\":1990:1991  i */\n      dup4\n        /* \"contracts/1_Storage.sol\":1976:1992  receiverInfos[i] */\n      dup2\n      dup2\n      lt\n      tag_48\n      jumpi\n      tag_49\n      tag_28\n      jump\t// in\n    tag_49:\n    tag_48:\n      swap1\n      pop\n      0x40\n      mul\n      add\n        /* \"contracts/1_Storage.sol\":1976:2005  receiverInfos[i].tokenAddress */\n      0x00\n      add\n      0x20\n      dup2\n      add\n      swap1\n      tag_50\n      swap2\n      swap1\n      tag_12\n      jump\t// in\n    tag_50:\n        /* \"contracts/1_Storage.sol\":1953:2005  address tokenAddress = receiverInfos[i].tokenAddress */\n      swap1\n      pop\n        /* \"contracts/1_Storage.sol\":2019:2033  uint256 amount */\n      0x00\n        /* \"contracts/1_Storage.sol\":2036:2049  receiverInfos */\n      dup6\n      dup6\n        /* \"contracts/1_Storage.sol\":2050:2051  i */\n      dup5\n        /* \"contracts/1_Storage.sol\":2036:2052  receiverInfos[i] */\n      dup2\n      dup2\n      lt\n      tag_51\n      jumpi\n      tag_52\n      tag_28\n      jump\t// in\n    tag_52:\n    tag_51:\n      swap1\n      pop\n      0x40\n      mul\n      add\n        /* \"contracts/1_Storage.sol\":2036:2059  receiverInfos[i].amount */\n      0x20\n      add\n      calldataload\n        /* \"contracts/1_Storage.sol\":2019:2059  uint256 amount = receiverInfos[i].amount */\n      swap1\n      pop\n        /* \"contracts/1_Storage.sol\":2074:2086  IERC20 token */\n      0x00\n        /* \"contracts/1_Storage.sol\":2096:2108  tokenAddress */\n      dup3\n        /* \"contracts/1_Storage.sol\":2074:2109  IERC20 token = IERC20(tokenAddress) */\n      swap1\n      pop\n        /* \"contracts/1_Storage.sol\":2123:2132  bool sent */\n      0x00\n        /* \"contracts/1_Storage.sol\":2135:2140  token */\n      dup2\n        /* \"contracts/1_Storage.sol\":2135:2149  token.transfer */\n      0xffffffffffffffffffffffffffffffffffffffff\n      and\n      0xa9059cbb\n        /* \"contracts/1_Storage.sol\":2150:2152  to */\n      dup8\n        /* \"contracts/1_Storage.sol\":2154:2160  amount */\n      dup6\n        /* \"contracts/1_Storage.sol\":2135:2161  token.transfer(to, amount) */\n      mload(0x40)\n      dup4\n      0xffffffff\n      and\n      0xe0\n      shl\n      dup2\n      mstore\n      0x04\n      add\n      tag_53\n      swap3\n      swap2\n      swap1\n      tag_54\n      jump\t// in\n    tag_53:\n      0x20\n      mload(0x40)\n      dup1\n      dup4\n      sub\n      dup2\n      0x00\n      dup8\n      gas\n      call\n      iszero\n      dup1\n      iszero\n      tag_56\n      jumpi\n      returndatasize\n      0x00\n      dup1\n      returndatacopy\n      revert(0x00, returndatasize)\n    tag_56:\n      pop\n      pop\n      pop\n      pop\n      mload(0x40)\n      returndatasize\n      not(0x1f)\n      0x1f\n      dup3\n      add\n      and\n      dup3\n      add\n      dup1\n      0x40\n      mstore\n      pop\n      dup2\n      add\n      swap1\n      tag_57\n      swap2\n      swap1\n      tag_58\n      jump\t// in\n    tag_57:\n        /* \"contracts/1_Storage.sol\":2123:2161  bool sent = token.transfer(to, amount) */\n      swap1\n      pop\n        /* \"contracts/1_Storage.sol\":2238:2242  sent */\n      dup1\n        /* \"contracts/1_Storage.sol\":2396:2408  uintToStr(i) */\n      tag_59\n        /* \"contracts/1_Storage.sol\":2406:2407  i */\n      dup7\n        /* \"contracts/1_Storage.sol\":2396:2405  uintToStr */\n      tag_60\n        /* \"contracts/1_Storage.sol\":2396:2408  uintToStr(i) */\n      jump\t// in\n    tag_59:\n        /* \"contracts/1_Storage.sol\":2288:2430  abi.encodePacked(... */\n      add(0x20, mload(0x40))\n      tag_61\n      swap2\n      swap1\n      tag_62\n      jump\t// in\n    tag_61:\n      mload(0x40)\n      0x20\n      dup2\n      dup4\n      sub\n      sub\n      dup2\n      mstore\n      swap1\n      0x40\n      mstore\n        /* \"contracts/1_Storage.sol\":2213:2462  require(... */\n      swap1\n      tag_63\n      jumpi\n      mload(0x40)\n      0x08c379a000000000000000000000000000000000000000000000000000000000\n      dup2\n      mstore\n      0x04\n      add\n      tag_64\n      swap2\n      swap1\n      tag_65\n      jump\t// in\n    tag_64:\n      mload(0x40)\n      dup1\n      swap2\n      sub\n      swap1\n      revert\n    tag_63:\n      pop\n        /* \"contracts/1_Storage.sol\":1939:2473  {... */\n      pop\n      pop\n      pop\n      pop\n        /* \"contracts/1_Storage.sol\":1934:1937  i++ */\n      dup1\n      dup1\n      0x01\n      add\n      swap2\n      pop\n      pop\n        /* \"contracts/1_Storage.sol\":1888:2473  for (uint256 i = 0; i < receiverInfos.length; i++) {... */\n      jump(tag_45)\n    tag_46:\n      pop\n        /* \"contracts/1_Storage.sol\":1151:2479  function distribute(ReceiverInfo[] calldata receiverInfos, address to)... */\n      pop\n      pop\n      pop\n      jump\t// out\n        /* \"contracts/1_Storage.sol\":703:860  function setAdmin(address newAdmin) public onlyAdmin {... */\n    tag_13:\n        /* \"contracts/1_Storage.sol\":635:640  admin */\n      0x00\n      dup1\n      sload\n      swap1\n      0x0100\n      exp\n      swap1\n      div\n      0xffffffffffffffffffffffffffffffffffffffff\n      and\n        /* \"contracts/1_Storage.sol\":621:640  msg.sender == admin */\n      0xffffffffffffffffffffffffffffffffffffffff\n      and\n        /* \"contracts/1_Storage.sol\":621:631  msg.sender */\n      caller\n        /* \"contracts/1_Storage.sol\":621:640  msg.sender == admin */\n      0xffffffffffffffffffffffffffffffffffffffff\n      and\n      eq\n        /* \"contracts/1_Storage.sol\":613:679  require(msg.sender == admin, \"Only admin can call this function.\") */\n      tag_67\n      jumpi\n      mload(0x40)\n      0x08c379a000000000000000000000000000000000000000000000000000000000\n      dup2\n      mstore\n      0x04\n      add\n      tag_68\n      swap1\n      tag_21\n      jump\t// in\n    tag_68:\n      mload(0x40)\n      dup1\n      swap2\n      sub\n      swap1\n      revert\n    tag_67:\n        /* \"contracts/1_Storage.sol\":794:795  0 */\n      0x00\n        /* \"contracts/1_Storage.sol\":774:796  newAdmin != address(0) */\n      0xffffffffffffffffffffffffffffffffffffffff\n      and\n        /* \"contracts/1_Storage.sol\":774:782  newAdmin */\n      dup2\n        /* \"contracts/1_Storage.sol\":774:796  newAdmin != address(0) */\n      0xffffffffffffffffffffffffffffffffffffffff\n      and\n      sub\n        /* \"contracts/1_Storage.sol\":766:827  require(newAdmin != address(0), \"Invalid address for admin.\") */\n      tag_70\n      jumpi\n      mload(0x40)\n      0x08c379a000000000000000000000000000000000000000000000000000000000\n      dup2\n      mstore\n      0x04\n      add\n      tag_71\n      swap1\n      tag_72\n      jump\t// in\n    tag_71:\n      mload(0x40)\n      dup1\n      swap2\n      sub\n      swap1\n      revert\n    tag_70:\n        /* \"contracts/1_Storage.sol\":845:853  newAdmin */\n      dup1\n        /* \"contracts/1_Storage.sol\":837:842  admin */\n      0x00\n      dup1\n        /* \"contracts/1_Storage.sol\":837:853  admin = newAdmin */\n      0x0100\n      exp\n      dup2\n      sload\n      dup2\n      0xffffffffffffffffffffffffffffffffffffffff\n      mul\n      not\n      and\n      swap1\n      dup4\n      0xffffffffffffffffffffffffffffffffffffffff\n      and\n      mul\n      or\n      swap1\n      sstore\n      pop\n        /* \"contracts/1_Storage.sol\":703:860  function setAdmin(address newAdmin) public onlyAdmin {... */\n      pop\n      jump\t// out\n        /* \"contracts/1_Storage.sol\":284:304  address public admin */\n    tag_15:\n      0x00\n      dup1\n      sload\n      swap1\n      0x0100\n      exp\n      swap1\n      div\n      0xffffffffffffffffffffffffffffffffffffffff\n      and\n      dup2\n      jump\t// out\n        /* \"contracts/1_Storage.sol\":2555:2990  function balanceOfToken(address tokenAddress)... */\n    tag_39:\n        /* \"contracts/1_Storage.sol\":2648:2655  uint256 */\n      0x00\n        /* \"contracts/1_Storage.sol\":2671:2688  bytes memory data */\n      dup1\n        /* \"contracts/1_Storage.sol\":2744:2771  bytes(\"balanceOf(address)\") */\n      mload(0x40)\n      dup1\n      0x40\n      add\n      0x40\n      mstore\n      dup1\n      0x12\n      dup2\n      mstore\n      0x20\n      add\n      0x62616c616e63654f662861646472657373290000000000000000000000000000\n      dup2\n      mstore\n      pop\n        /* \"contracts/1_Storage.sol\":2734:2772  keccak256(bytes(\"balanceOf(address)\")) */\n      dup1\n      mload\n      swap1\n      0x20\n      add\n      keccak256\n        /* \"contracts/1_Storage.sol\":2795:2799  this */\n      address\n        /* \"contracts/1_Storage.sol\":2691:2810  abi.encodeWithSelector(... */\n      add(0x24, mload(0x40))\n      tag_74\n      swap2\n      swap1\n      tag_17\n      jump\t// in\n    tag_74:\n      mload(0x40)\n      0x20\n      dup2\n      dup4\n      sub\n      sub\n      dup2\n      mstore\n      swap1\n      0x40\n      mstore\n      swap1\n      not(0xffffffffffffffffffffffffffffffffffffffffffffffffffffffff)\n      and\n      0x20\n      dup3\n      add\n      dup1\n      mload\n      0xffffffffffffffffffffffffffffffffffffffffffffffffffffffff\n      dup4\n      dup2\n      dup4\n      and\n      or\n      dup4\n      mstore\n      pop\n      pop\n      pop\n      pop\n        /* \"contracts/1_Storage.sol\":2671:2810  bytes memory data = abi.encodeWithSelector(... */\n      swap1\n      pop\n        /* \"contracts/1_Storage.sol\":2821:2833  bool success */\n      0x00\n        /* \"contracts/1_Storage.sol\":2835:2854  bytes memory result */\n      dup1\n        /* \"contracts/1_Storage.sol\":2858:2870  tokenAddress */\n      dup5\n        /* \"contracts/1_Storage.sol\":2858:2881  tokenAddress.staticcall */\n      0xffffffffffffffffffffffffffffffffffffffff\n      and\n        /* \"contracts/1_Storage.sol\":2882:2886  data */\n      dup4\n        /* \"contracts/1_Storage.sol\":2858:2887  tokenAddress.staticcall(data) */\n      mload(0x40)\n      tag_75\n      swap2\n      swap1\n      tag_76\n      jump\t// in\n    tag_75:\n      0x00\n      mload(0x40)\n      dup1\n      dup4\n      sub\n      dup2\n      dup6\n      gas\n      staticcall\n      swap2\n      pop\n      pop\n      returndatasize\n      dup1\n      0x00\n      dup2\n      eq\n      tag_79\n      jumpi\n      mload(0x40)\n      swap2\n      pop\n      and(add(returndatasize, 0x3f), not(0x1f))\n      dup3\n      add\n      0x40\n      mstore\n      returndatasize\n      dup3\n      mstore\n      returndatasize\n      0x00\n      0x20\n      dup5\n      add\n      returndatacopy\n      jump(tag_78)\n    tag_79:\n      0x60\n      swap2\n      pop\n    tag_78:\n      pop\n        /* \"contracts/1_Storage.sol\":2820:2887  (bool success, bytes memory result) = tokenAddress.staticcall(data) */\n      swap2\n      pop\n      swap2\n      pop\n        /* \"contracts/1_Storage.sol\":2905:2912  success */\n      dup2\n        /* \"contracts/1_Storage.sol\":2897:2937  require(success, \"External call failed\") */\n      tag_80\n      jumpi\n      mload(0x40)\n      0x08c379a000000000000000000000000000000000000000000000000000000000\n      dup2\n      mstore\n      0x04\n      add\n      tag_81\n      swap1\n      tag_82\n      jump\t// in\n    tag_81:\n      mload(0x40)\n      dup1\n      swap2\n      sub\n      swap1\n      revert\n    tag_80:\n        /* \"contracts/1_Storage.sol\":2965:2971  result */\n      dup1\n        /* \"contracts/1_Storage.sol\":2954:2983  abi.decode(result, (uint256)) */\n      dup1\n      0x20\n      add\n      swap1\n      mload\n      dup2\n      add\n      swap1\n      tag_83\n      swap2\n      swap1\n      tag_84\n      jump\t// in\n    tag_83:\n        /* \"contracts/1_Storage.sol\":2947:2983  return abi.decode(result, (uint256)) */\n      swap4\n      pop\n      pop\n      pop\n      pop\n        /* \"contracts/1_Storage.sol\":2555:2990  function balanceOfToken(address tokenAddress)... */\n      swap2\n      swap1\n      pop\n      jump\t// out\n        /* \"contracts/1_Storage.sol\":3046:3602  function uintToStr(uint256 _i) internal pure returns (string memory) {... */\n    tag_60:\n        /* \"contracts/1_Storage.sol\":3100:3113  string memory */\n      0x60\n        /* \"contracts/1_Storage.sol\":3135:3136  0 */\n      0x00\n        /* \"contracts/1_Storage.sol\":3129:3131  _i */\n      dup3\n        /* \"contracts/1_Storage.sol\":3129:3136  _i == 0 */\n      sub\n        /* \"contracts/1_Storage.sol\":3125:3173  if (_i == 0) {... */\n      tag_86\n      jumpi\n        /* \"contracts/1_Storage.sol\":3152:3162  return \"0\" */\n      mload(0x40)\n      dup1\n      0x40\n      add\n      0x40\n      mstore\n      dup1\n      0x01\n      dup2\n      mstore\n      0x20\n      add\n      0x3000000000000000000000000000000000000000000000000000000000000000\n      dup2\n      mstore\n      pop\n      swap1\n      pop\n      jump(tag_85)\n        /* \"contracts/1_Storage.sol\":3125:3173  if (_i == 0) {... */\n    tag_86:\n        /* \"contracts/1_Storage.sol\":3182:3191  uint256 j */\n      0x00\n        /* \"contracts/1_Storage.sol\":3194:3196  _i */\n      dup3\n        /* \"contracts/1_Storage.sol\":3182:3196  uint256 j = _i */\n      swap1\n      pop\n        /* \"contracts/1_Storage.sol\":3206:3217  uint256 len */\n      0x00\n        /* \"contracts/1_Storage.sol\":3227:3293  while (j != 0) {... */\n    tag_87:\n        /* \"contracts/1_Storage.sol\":3239:3240  0 */\n      0x00\n        /* \"contracts/1_Storage.sol\":3234:3235  j */\n      dup3\n        /* \"contracts/1_Storage.sol\":3234:3240  j != 0 */\n      eq\n        /* \"contracts/1_Storage.sol\":3227:3293  while (j != 0) {... */\n      tag_88\n      jumpi\n        /* \"contracts/1_Storage.sol\":3256:3261  len++ */\n      dup1\n      dup1\n      tag_89\n      swap1\n      tag_90\n      jump\t// in\n    tag_89:\n      swap2\n      pop\n      pop\n        /* \"contracts/1_Storage.sol\":3280:3282  10 */\n      0x0a\n        /* \"contracts/1_Storage.sol\":3275:3282  j /= 10 */\n      dup3\n      tag_91\n      swap2\n      swap1\n      tag_92\n      jump\t// in\n    tag_91:\n      swap2\n      pop\n        /* \"contracts/1_Storage.sol\":3227:3293  while (j != 0) {... */\n      jump(tag_87)\n    tag_88:\n        /* \"contracts/1_Storage.sol\":3302:3319  bytes memory bstr */\n      0x00\n        /* \"contracts/1_Storage.sol\":3332:3335  len */\n      dup2\n        /* \"contracts/1_Storage.sol\":3322:3336  new bytes(len) */\n      0xffffffffffffffff\n      dup2\n      gt\n      iszero\n      tag_93\n      jumpi\n      tag_94\n      tag_95\n      jump\t// in\n    tag_94:\n    tag_93:\n      mload(0x40)\n      swap1\n      dup1\n      dup3\n      mstore\n      dup1\n      0x1f\n      add\n      not(0x1f)\n      and\n      0x20\n      add\n      dup3\n      add\n      0x40\n      mstore\n      dup1\n      iszero\n      tag_96\n      jumpi\n      dup2\n      0x20\n      add\n      0x01\n      dup3\n      mul\n      dup1\n      calldatasize\n      dup4\n      calldatacopy\n      dup1\n      dup3\n      add\n      swap2\n      pop\n      pop\n      swap1\n      pop\n    tag_96:\n      pop\n        /* \"contracts/1_Storage.sol\":3302:3336  bytes memory bstr = new bytes(len) */\n      swap1\n      pop\n        /* \"contracts/1_Storage.sol\":3346:3355  uint256 k */\n      0x00\n        /* \"contracts/1_Storage.sol\":3358:3361  len */\n      dup3\n        /* \"contracts/1_Storage.sol\":3346:3361  uint256 k = len */\n      swap1\n      pop\n        /* \"contracts/1_Storage.sol\":3371:3567  while (_i != 0) {... */\n    tag_97:\n        /* \"contracts/1_Storage.sol\":3384:3385  0 */\n      0x00\n        /* \"contracts/1_Storage.sol\":3378:3380  _i */\n      dup7\n        /* \"contracts/1_Storage.sol\":3378:3385  _i != 0 */\n      eq\n        /* \"contracts/1_Storage.sol\":3371:3567  while (_i != 0) {... */\n      tag_98\n      jumpi\n        /* \"contracts/1_Storage.sol\":3409:3410  1 */\n      0x01\n        /* \"contracts/1_Storage.sol\":3405:3406  k */\n      dup2\n        /* \"contracts/1_Storage.sol\":3405:3410  k - 1 */\n      tag_99\n      swap2\n      swap1\n      tag_100\n      jump\t// in\n    tag_99:\n        /* \"contracts/1_Storage.sol\":3401:3410  k = k - 1 */\n      swap1\n      pop\n        /* \"contracts/1_Storage.sol\":3424:3434  uint8 temp */\n      0x00\n        /* \"contracts/1_Storage.sol\":3466:3468  10 */\n      0x0a\n        /* \"contracts/1_Storage.sol\":3460:3462  10 */\n      dup1\n        /* \"contracts/1_Storage.sol\":3455:3457  _i */\n      dup9\n        /* \"contracts/1_Storage.sol\":3455:3462  _i / 10 */\n      tag_101\n      swap2\n      swap1\n      tag_92\n      jump\t// in\n    tag_101:\n        /* \"contracts/1_Storage.sol\":3454:3468  (_i / 10) * 10 */\n      tag_102\n      swap2\n      swap1\n      tag_103\n      jump\t// in\n    tag_102:\n        /* \"contracts/1_Storage.sol\":3449:3451  _i */\n      dup8\n        /* \"contracts/1_Storage.sol\":3449:3468  _i - (_i / 10) * 10 */\n      tag_104\n      swap2\n      swap1\n      tag_100\n      jump\t// in\n    tag_104:\n        /* \"contracts/1_Storage.sol\":3438:3440  48 */\n      0x30\n        /* \"contracts/1_Storage.sol\":3438:3469  48 + uint8(_i - (_i / 10) * 10) */\n      tag_105\n      swap2\n      swap1\n      tag_106\n      jump\t// in\n    tag_105:\n        /* \"contracts/1_Storage.sol\":3424:3470  uint8 temp = (48 + uint8(_i - (_i / 10) * 10)) */\n      swap1\n      pop\n        /* \"contracts/1_Storage.sol\":3484:3493  bytes1 b1 */\n      0x00\n        /* \"contracts/1_Storage.sol\":3503:3507  temp */\n      dup2\n        /* \"contracts/1_Storage.sol\":3496:3508  bytes1(temp) */\n      0xf8\n      shl\n        /* \"contracts/1_Storage.sol\":3484:3508  bytes1 b1 = bytes1(temp) */\n      swap1\n      pop\n        /* \"contracts/1_Storage.sol\":3532:3534  b1 */\n      dup1\n        /* \"contracts/1_Storage.sol\":3522:3526  bstr */\n      dup5\n        /* \"contracts/1_Storage.sol\":3527:3528  k */\n      dup5\n        /* \"contracts/1_Storage.sol\":3522:3529  bstr[k] */\n      dup2\n      mload\n      dup2\n      lt\n      tag_107\n      jumpi\n      tag_108\n      tag_28\n      jump\t// in\n    tag_108:\n    tag_107:\n      0x20\n      add\n      add\n        /* \"contracts/1_Storage.sol\":3522:3534  bstr[k] = b1 */\n      swap1\n      not(0xffffffffffffffffffffffffffffffffffffffffffffffffffffffffffffff)\n      and\n      swap1\n      dup2\n      0x00\n      byte\n      swap1\n      mstore8\n      pop\n        /* \"contracts/1_Storage.sol\":3554:3556  10 */\n      0x0a\n        /* \"contracts/1_Storage.sol\":3548:3556  _i /= 10 */\n      dup9\n      tag_109\n      swap2\n      swap1\n      tag_92\n      jump\t// in\n    tag_109:\n      swap8\n      pop\n        /* \"contracts/1_Storage.sol\":3387:3567  {... */\n      pop\n      pop\n        /* \"contracts/1_Storage.sol\":3371:3567  while (_i != 0) {... */\n      jump(tag_97)\n    tag_98:\n        /* \"contracts/1_Storage.sol\":3590:3594  bstr */\n      dup2\n        /* \"contracts/1_Storage.sol\":3576:3595  return string(bstr) */\n      swap5\n      pop\n      pop\n      pop\n      pop\n      pop\n        /* \"contracts/1_Storage.sol\":3046:3602  function uintToStr(uint256 _i) internal pure returns (string memory) {... */\n    tag_85:\n      swap2\n      swap1\n      pop\n      jump\t// out\n        /* \"#utility.yul\":88:205   */\n    tag_111:\n        /* \"#utility.yul\":197:198   */\n      0x00\n        /* \"#utility.yul\":194:195   */\n      dup1\n        /* \"#utility.yul\":187:199   */\n      revert\n        /* \"#utility.yul\":211:328   */\n    tag_112:\n        /* \"#utility.yul\":320:321   */\n      0x00\n        /* \"#utility.yul\":317:318   */\n      dup1\n        /* \"#utility.yul\":310:322   */\n      revert\n        /* \"#utility.yul\":334:451   */\n    tag_113:\n        /* \"#utility.yul\":443:444   */\n      0x00\n        /* \"#utility.yul\":440:441   */\n      dup1\n        /* \"#utility.yul\":433:445   */\n      revert\n        /* \"#utility.yul\":457:574   */\n    tag_114:\n        /* \"#utility.yul\":566:567   */\n      0x00\n        /* \"#utility.yul\":563:564   */\n      dup1\n        /* \"#utility.yul\":556:568   */\n      revert\n        /* \"#utility.yul\":580:697   */\n    tag_115:\n        /* \"#utility.yul\":689:690   */\n      0x00\n        /* \"#utility.yul\":686:687   */\n      dup1\n        /* \"#utility.yul\":679:691   */\n      revert\n        /* \"#utility.yul\":750:1348   */\n    tag_116:\n        /* \"#utility.yul\":853:861   */\n      0x00\n        /* \"#utility.yul\":863:869   */\n      dup1\n        /* \"#utility.yul\":913:916   */\n      dup4\n        /* \"#utility.yul\":906:910   */\n      0x1f\n        /* \"#utility.yul\":898:904   */\n      dup5\n        /* \"#utility.yul\":894:911   */\n      add\n        /* \"#utility.yul\":890:917   */\n      slt\n        /* \"#utility.yul\":880:1002   */\n      tag_164\n      jumpi\n        /* \"#utility.yul\":921:1000   */\n      tag_165\n      tag_113\n      jump\t// in\n    tag_165:\n        /* \"#utility.yul\":880:1002   */\n    tag_164:\n        /* \"#utility.yul\":1034:1040   */\n      dup3\n        /* \"#utility.yul\":1021:1041   */\n      calldataload\n        /* \"#utility.yul\":1011:1041   */\n      swap1\n      pop\n        /* \"#utility.yul\":1064:1082   */\n      0xffffffffffffffff\n        /* \"#utility.yul\":1056:1062   */\n      dup2\n        /* \"#utility.yul\":1053:1083   */\n      gt\n        /* \"#utility.yul\":1050:1167   */\n      iszero\n      tag_166\n      jumpi\n        /* \"#utility.yul\":1086:1165   */\n      tag_167\n      tag_114\n      jump\t// in\n    tag_167:\n        /* \"#utility.yul\":1050:1167   */\n    tag_166:\n        /* \"#utility.yul\":1200:1204   */\n      0x20\n        /* \"#utility.yul\":1192:1198   */\n      dup4\n        /* \"#utility.yul\":1188:1205   */\n      add\n        /* \"#utility.yul\":1176:1205   */\n      swap2\n      pop\n        /* \"#utility.yul\":1254:1257   */\n      dup4\n        /* \"#utility.yul\":1246:1250   */\n      0x40\n        /* \"#utility.yul\":1238:1244   */\n      dup3\n        /* \"#utility.yul\":1234:1251   */\n      mul\n        /* \"#utility.yul\":1224:1232   */\n      dup4\n        /* \"#utility.yul\":1220:1252   */\n      add\n        /* \"#utility.yul\":1217:1258   */\n      gt\n        /* \"#utility.yul\":1214:1342   */\n      iszero\n      tag_168\n      jumpi\n        /* \"#utility.yul\":1261:1340   */\n      tag_169\n      tag_115\n      jump\t// in\n    tag_169:\n        /* \"#utility.yul\":1214:1342   */\n    tag_168:\n        /* \"#utility.yul\":750:1348   */\n      swap3\n      pop\n      swap3\n      swap1\n      pop\n      jump\t// out\n        /* \"#utility.yul\":1354:1480   */\n    tag_117:\n        /* \"#utility.yul\":1391:1398   */\n      0x00\n        /* \"#utility.yul\":1431:1473   */\n      0xffffffffffffffffffffffffffffffffffffffff\n        /* \"#utility.yul\":1424:1429   */\n      dup3\n        /* \"#utility.yul\":1420:1474   */\n      and\n        /* \"#utility.yul\":1409:1474   */\n      swap1\n      pop\n        /* \"#utility.yul\":1354:1480   */\n      swap2\n      swap1\n      pop\n      jump\t// out\n        /* \"#utility.yul\":1486:1582   */\n    tag_118:\n        /* \"#utility.yul\":1523:1530   */\n      0x00\n        /* \"#utility.yul\":1552:1576   */\n      tag_172\n        /* \"#utility.yul\":1570:1575   */\n      dup3\n        /* \"#utility.yul\":1552:1576   */\n      tag_117\n      jump\t// in\n    tag_172:\n        /* \"#utility.yul\":1541:1576   */\n      swap1\n      pop\n        /* \"#utility.yul\":1486:1582   */\n      swap2\n      swap1\n      pop\n      jump\t// out\n        /* \"#utility.yul\":1588:1710   */\n    tag_119:\n        /* \"#utility.yul\":1661:1685   */\n      tag_174\n        /* \"#utility.yul\":1679:1684   */\n      dup2\n        /* \"#utility.yul\":1661:1685   */\n      tag_118\n      jump\t// in\n    tag_174:\n        /* \"#utility.yul\":1654:1659   */\n      dup2\n        /* \"#utility.yul\":1651:1686   */\n      eq\n        /* \"#utility.yul\":1641:1704   */\n      tag_175\n      jumpi\n        /* \"#utility.yul\":1700:1701   */\n      0x00\n        /* \"#utility.yul\":1697:1698   */\n      dup1\n        /* \"#utility.yul\":1690:1702   */\n      revert\n        /* \"#utility.yul\":1641:1704   */\n    tag_175:\n        /* \"#utility.yul\":1588:1710   */\n      pop\n      jump\t// out\n        /* \"#utility.yul\":1716:1855   */\n    tag_120:\n        /* \"#utility.yul\":1762:1767   */\n      0x00\n        /* \"#utility.yul\":1800:1806   */\n      dup2\n        /* \"#utility.yul\":1787:1807   */\n      calldataload\n        /* \"#utility.yul\":1778:1807   */\n      swap1\n      pop\n        /* \"#utility.yul\":1816:1849   */\n      tag_177\n        /* \"#utility.yul\":1843:1848   */\n      dup2\n        /* \"#utility.yul\":1816:1849   */\n      tag_119\n      jump\t// in\n    tag_177:\n        /* \"#utility.yul\":1716:1855   */\n      swap3\n      swap2\n      pop\n      pop\n      jump\t// out\n        /* \"#utility.yul\":1861:2625   */\n    tag_8:\n        /* \"#utility.yul\":1986:1992   */\n      0x00\n        /* \"#utility.yul\":1994:2000   */\n      dup1\n        /* \"#utility.yul\":2002:2008   */\n      0x00\n        /* \"#utility.yul\":2051:2053   */\n      0x40\n        /* \"#utility.yul\":2039:2048   */\n      dup5\n        /* \"#utility.yul\":2030:2037   */\n      dup7\n        /* \"#utility.yul\":2026:2049   */\n      sub\n        /* \"#utility.yul\":2022:2054   */\n      slt\n        /* \"#utility.yul\":2019:2138   */\n      iszero\n      tag_179\n      jumpi\n        /* \"#utility.yul\":2057:2136   */\n      tag_180\n      tag_111\n      jump\t// in\n    tag_180:\n        /* \"#utility.yul\":2019:2138   */\n    tag_179:\n        /* \"#utility.yul\":2205:2206   */\n      0x00\n        /* \"#utility.yul\":2194:2203   */\n      dup5\n        /* \"#utility.yul\":2190:2207   */\n      add\n        /* \"#utility.yul\":2177:2208   */\n      calldataload\n        /* \"#utility.yul\":2235:2253   */\n      0xffffffffffffffff\n        /* \"#utility.yul\":2227:2233   */\n      dup2\n        /* \"#utility.yul\":2224:2254   */\n      gt\n        /* \"#utility.yul\":2221:2338   */\n      iszero\n      tag_181\n      jumpi\n        /* \"#utility.yul\":2257:2336   */\n      tag_182\n      tag_112\n      jump\t// in\n    tag_182:\n        /* \"#utility.yul\":2221:2338   */\n    tag_181:\n        /* \"#utility.yul\":2370:2480   */\n      tag_183\n        /* \"#utility.yul\":2472:2479   */\n      dup7\n        /* \"#utility.yul\":2463:2469   */\n      dup3\n        /* \"#utility.yul\":2452:2461   */\n      dup8\n        /* \"#utility.yul\":2448:2470   */\n      add\n        /* \"#utility.yul\":2370:2480   */\n      tag_116\n      jump\t// in\n    tag_183:\n        /* \"#utility.yul\":2352:2480   */\n      swap4\n      pop\n      swap4\n      pop\n        /* \"#utility.yul\":2148:2490   */\n      pop\n        /* \"#utility.yul\":2529:2531   */\n      0x20\n        /* \"#utility.yul\":2555:2608   */\n      tag_184\n        /* \"#utility.yul\":2600:2607   */\n      dup7\n        /* \"#utility.yul\":2591:2597   */\n      dup3\n        /* \"#utility.yul\":2580:2589   */\n      dup8\n        /* \"#utility.yul\":2576:2598   */\n      add\n        /* \"#utility.yul\":2555:2608   */\n      tag_120\n      jump\t// in\n    tag_184:\n        /* \"#utility.yul\":2545:2608   */\n      swap2\n      pop\n        /* \"#utility.yul\":2500:2618   */\n      pop\n        /* \"#utility.yul\":1861:2625   */\n      swap3\n      pop\n      swap3\n      pop\n      swap3\n      jump\t// out\n        /* \"#utility.yul\":2631:2960   */\n    tag_12:\n        /* \"#utility.yul\":2690:2696   */\n      0x00\n        /* \"#utility.yul\":2739:2741   */\n      0x20\n        /* \"#utility.yul\":2727:2736   */\n      dup3\n        /* \"#utility.yul\":2718:2725   */\n      dup5\n        /* \"#utility.yul\":2714:2737   */\n      sub\n        /* \"#utility.yul\":2710:2742   */\n      slt\n        /* \"#utility.yul\":2707:2826   */\n      iszero\n      tag_186\n      jumpi\n        /* \"#utility.yul\":2745:2824   */\n      tag_187\n      tag_111\n      jump\t// in\n    tag_187:\n        /* \"#utility.yul\":2707:2826   */\n    tag_186:\n        /* \"#utility.yul\":2865:2866   */\n      0x00\n        /* \"#utility.yul\":2890:2943   */\n      tag_188\n        /* \"#utility.yul\":2935:2942   */\n      dup5\n        /* \"#utility.yul\":2926:2932   */\n      dup3\n        /* \"#utility.yul\":2915:2924   */\n      dup6\n        /* \"#utility.yul\":2911:2933   */\n      add\n        /* \"#utility.yul\":2890:2943   */\n      tag_120\n      jump\t// in\n    tag_188:\n        /* \"#utility.yul\":2880:2943   */\n      swap2\n      pop\n        /* \"#utility.yul\":2836:2953   */\n      pop\n        /* \"#utility.yul\":2631:2960   */\n      swap3\n      swap2\n      pop\n      pop\n      jump\t// out\n        /* \"#utility.yul\":2966:3084   */\n    tag_121:\n        /* \"#utility.yul\":3053:3077   */\n      tag_190\n        /* \"#utility.yul\":3071:3076   */\n      dup2\n        /* \"#utility.yul\":3053:3077   */\n      tag_118\n      jump\t// in\n    tag_190:\n        /* \"#utility.yul\":3048:3051   */\n      dup3\n        /* \"#utility.yul\":3041:3078   */\n      mstore\n        /* \"#utility.yul\":2966:3084   */\n      pop\n      pop\n      jump\t// out\n        /* \"#utility.yul\":3090:3312   */\n    tag_17:\n        /* \"#utility.yul\":3183:3187   */\n      0x00\n        /* \"#utility.yul\":3221:3223   */\n      0x20\n        /* \"#utility.yul\":3210:3219   */\n      dup3\n        /* \"#utility.yul\":3206:3224   */\n      add\n        /* \"#utility.yul\":3198:3224   */\n      swap1\n      pop\n        /* \"#utility.yul\":3234:3305   */\n      tag_192\n        /* \"#utility.yul\":3302:3303   */\n      0x00\n        /* \"#utility.yul\":3291:3300   */\n      dup4\n        /* \"#utility.yul\":3287:3304   */\n      add\n        /* \"#utility.yul\":3278:3284   */\n      dup5\n        /* \"#utility.yul\":3234:3305   */\n      tag_121\n      jump\t// in\n    tag_192:\n        /* \"#utility.yul\":3090:3312   */\n      swap3\n      swap2\n      pop\n      pop\n      jump\t// out\n        /* \"#utility.yul\":3318:3487   */\n    tag_122:\n        /* \"#utility.yul\":3402:3413   */\n      0x00\n        /* \"#utility.yul\":3436:3442   */\n      dup3\n        /* \"#utility.yul\":3431:3434   */\n      dup3\n        /* \"#utility.yul\":3424:3443   */\n      mstore\n        /* \"#utility.yul\":3476:3480   */\n      0x20\n        /* \"#utility.yul\":3471:3474   */\n      dup3\n        /* \"#utility.yul\":3467:3481   */\n      add\n        /* \"#utility.yul\":3452:3481   */\n      swap1\n      pop\n        /* \"#utility.yul\":3318:3487   */\n      swap3\n      swap2\n      pop\n      pop\n      jump\t// out\n        /* \"#utility.yul\":3493:3714   */\n    tag_123:\n        /* \"#utility.yul\":3633:3667   */\n      0x4f6e6c792061646d696e2063616e2063616c6c20746869732066756e6374696f\n        /* \"#utility.yul\":3629:3630   */\n      0x00\n        /* \"#utility.yul\":3621:3627   */\n      dup3\n        /* \"#utility.yul\":3617:3631   */\n      add\n        /* \"#utility.yul\":3610:3668   */\n      mstore\n        /* \"#utility.yul\":3702:3706   */\n      0x6e2e000000000000000000000000000000000000000000000000000000000000\n        /* \"#utility.yul\":3697:3699   */\n      0x20\n        /* \"#utility.yul\":3689:3695   */\n      dup3\n        /* \"#utility.yul\":3685:3700   */\n      add\n        /* \"#utility.yul\":3678:3707   */\n      mstore\n        /* \"#utility.yul\":3493:3714   */\n      pop\n      jump\t// out\n        /* \"#utility.yul\":3720:4086   */\n    tag_124:\n        /* \"#utility.yul\":3862:3865   */\n      0x00\n        /* \"#utility.yul\":3883:3950   */\n      tag_196\n        /* \"#utility.yul\":3947:3949   */\n      0x22\n        /* \"#utility.yul\":3942:3945   */\n      dup4\n        /* \"#utility.yul\":3883:3950   */\n      tag_122\n      jump\t// in\n    tag_196:\n        /* \"#utility.yul\":3876:3950   */\n      swap2\n      pop\n        /* \"#utility.yul\":3959:4052   */\n      tag_197\n        /* \"#utility.yul\":4048:4051   */\n      dup3\n        /* \"#utility.yul\":3959:4052   */\n      tag_123\n      jump\t// in\n    tag_197:\n        /* \"#utility.yul\":4077:4079   */\n      0x40\n        /* \"#utility.yul\":4072:4075   */\n      dup3\n        /* \"#utility.yul\":4068:4080   */\n      add\n        /* \"#utility.yul\":4061:4080   */\n      swap1\n      pop\n        /* \"#utility.yul\":3720:4086   */\n      swap2\n      swap1\n      pop\n      jump\t// out\n        /* \"#utility.yul\":4092:4511   */\n    tag_21:\n        /* \"#utility.yul\":4258:4262   */\n      0x00\n        /* \"#utility.yul\":4296:4298   */\n      0x20\n        /* \"#utility.yul\":4285:4294   */\n      dup3\n        /* \"#utility.yul\":4281:4299   */\n      add\n        /* \"#utility.yul\":4273:4299   */\n      swap1\n      pop\n        /* \"#utility.yul\":4345:4354   */\n      dup2\n        /* \"#utility.yul\":4339:4343   */\n      dup2\n        /* \"#utility.yul\":4335:4355   */\n      sub\n        /* \"#utility.yul\":4331:4332   */\n      0x00\n        /* \"#utility.yul\":4320:4329   */\n      dup4\n        /* \"#utility.yul\":4316:4333   */\n      add\n        /* \"#utility.yul\":4309:4356   */\n      mstore\n        /* \"#utility.yul\":4373:4504   */\n      tag_199\n        /* \"#utility.yul\":4499:4503   */\n      dup2\n        /* \"#utility.yul\":4373:4504   */\n      tag_124\n      jump\t// in\n    tag_199:\n        /* \"#utility.yul\":4365:4504   */\n      swap1\n      pop\n        /* \"#utility.yul\":4092:4511   */\n      swap2\n      swap1\n      pop\n      jump\t// out\n        /* \"#utility.yul\":4517:4697   */\n    tag_28:\n        /* \"#utility.yul\":4565:4642   */\n      0x4e487b7100000000000000000000000000000000000000000000000000000000\n        /* \"#utility.yul\":4562:4563   */\n      0x00\n        /* \"#utility.yul\":4555:4643   */\n      mstore\n        /* \"#utility.yul\":4662:4666   */\n      0x32\n        /* \"#utility.yul\":4659:4660   */\n      0x04\n        /* \"#utility.yul\":4652:4667   */\n      mstore\n        /* \"#utility.yul\":4686:4690   */\n      0x24\n        /* \"#utility.yul\":4683:4684   */\n      0x00\n        /* \"#utility.yul\":4676:4691   */\n      revert\n        /* \"#utility.yul\":4703:4875   */\n    tag_125:\n        /* \"#utility.yul\":4843:4867   */\n      0x496e76616c696420746f6b656e20616464726573732e00000000000000000000\n        /* \"#utility.yul\":4839:4840   */\n      0x00\n        /* \"#utility.yul\":4831:4837   */\n      dup3\n        /* \"#utility.yul\":4827:4841   */\n      add\n        /* \"#utility.yul\":4820:4868   */\n      mstore\n        /* \"#utility.yul\":4703:4875   */\n      pop\n      jump\t// out\n        /* \"#utility.yul\":4881:5247   */\n    tag_126:\n        /* \"#utility.yul\":5023:5026   */\n      0x00\n        /* \"#utility.yul\":5044:5111   */\n      tag_203\n        /* \"#utility.yul\":5108:5110   */\n      0x16\n        /* \"#utility.yul\":5103:5106   */\n      dup4\n        /* \"#utility.yul\":5044:5111   */\n      tag_122\n      jump\t// in\n    tag_203:\n        /* \"#utility.yul\":5037:5111   */\n      swap2\n      pop\n        /* \"#utility.yul\":5120:5213   */\n      tag_204\n        /* \"#utility.yul\":5209:5212   */\n      dup3\n        /* \"#utility.yul\":5120:5213   */\n      tag_125\n      jump\t// in\n    tag_204:\n        /* \"#utility.yul\":5238:5240   */\n      0x20\n        /* \"#utility.yul\":5233:5236   */\n      dup3\n        /* \"#utility.yul\":5229:5241   */\n      add\n        /* \"#utility.yul\":5222:5241   */\n      swap1\n      pop\n        /* \"#utility.yul\":4881:5247   */\n      swap2\n      swap1\n      pop\n      jump\t// out\n        /* \"#utility.yul\":5253:5672   */\n    tag_34:\n        /* \"#utility.yul\":5419:5423   */\n      0x00\n        /* \"#utility.yul\":5457:5459   */\n      0x20\n        /* \"#utility.yul\":5446:5455   */\n      dup3\n        /* \"#utility.yul\":5442:5460   */\n      add\n        /* \"#utility.yul\":5434:5460   */\n      swap1\n      pop\n        /* \"#utility.yul\":5506:5515   */\n      dup2\n        /* \"#utility.yul\":5500:5504   */\n      dup2\n        /* \"#utility.yul\":5496:5516   */\n      sub\n        /* \"#utility.yul\":5492:5493   */\n      0x00\n        /* \"#utility.yul\":5481:5490   */\n      dup4\n        /* \"#utility.yul\":5477:5494   */\n      add\n        /* \"#utility.yul\":5470:5517   */\n      mstore\n        /* \"#utility.yul\":5534:5665   */\n      tag_206\n        /* \"#utility.yul\":5660:5664   */\n      dup2\n        /* \"#utility.yul\":5534:5665   */\n      tag_126\n      jump\t// in\n    tag_206:\n        /* \"#utility.yul\":5526:5665   */\n      swap1\n      pop\n        /* \"#utility.yul\":5253:5672   */\n      swap2\n      swap1\n      pop\n      jump\t// out\n        /* \"#utility.yul\":5678:5843   */\n    tag_127:\n        /* \"#utility.yul\":5818:5835   */\n      0x496e76616c696420616d6f756e742e0000000000000000000000000000000000\n        /* \"#utility.yul\":5814:5815   */\n      0x00\n        /* \"#utility.yul\":5806:5812   */\n      dup3\n        /* \"#utility.yul\":5802:5816   */\n      add\n        /* \"#utility.yul\":5795:5836   */\n      mstore\n        /* \"#utility.yul\":5678:5843   */\n      pop\n      jump\t// out\n        /* \"#utility.yul\":5849:6215   */\n    tag_128:\n        /* \"#utility.yul\":5991:5994   */\n      0x00\n        /* \"#utility.yul\":6012:6079   */\n      tag_209\n        /* \"#utility.yul\":6076:6078   */\n      0x0f\n        /* \"#utility.yul\":6071:6074   */\n      dup4\n        /* \"#utility.yul\":6012:6079   */\n      tag_122\n      jump\t// in\n    tag_209:\n        /* \"#utility.yul\":6005:6079   */\n      swap2\n      pop\n        /* \"#utility.yul\":6088:6181   */\n      tag_210\n        /* \"#utility.yul\":6177:6180   */\n      dup3\n        /* \"#utility.yul\":6088:6181   */\n      tag_127\n      jump\t// in\n    tag_210:\n        /* \"#utility.yul\":6206:6208   */\n      0x20\n        /* \"#utility.yul\":6201:6204   */\n      dup3\n        /* \"#utility.yul\":6197:6209   */\n      add\n        /* \"#utility.yul\":6190:6209   */\n      swap1\n      pop\n        /* \"#utility.yul\":5849:6215   */\n      swap2\n      swap1\n      pop\n      jump\t// out\n        /* \"#utility.yul\":6221:6640   */\n    tag_37:\n        /* \"#utility.yul\":6387:6391   */\n      0x00\n        /* \"#utility.yul\":6425:6427   */\n      0x20\n        /* \"#utility.yul\":6414:6423   */\n      dup3\n        /* \"#utility.yul\":6410:6428   */\n      add\n        /* \"#utility.yul\":6402:6428   */\n      swap1\n      pop\n        /* \"#utility.yul\":6474:6483   */\n      dup2\n        /* \"#utility.yul\":6468:6472   */\n      dup2\n        /* \"#utility.yul\":6464:6484   */\n      sub\n        /* \"#utility.yul\":6460:6461   */\n      0x00\n        /* \"#utility.yul\":6449:6458   */\n      dup4\n        /* \"#utility.yul\":6445:6462   */\n      add\n        /* \"#utility.yul\":6438:6485   */\n      mstore\n        /* \"#utility.yul\":6502:6633   */\n      tag_212\n        /* \"#utility.yul\":6628:6632   */\n      dup2\n        /* \"#utility.yul\":6502:6633   */\n      tag_128\n      jump\t// in\n    tag_212:\n        /* \"#utility.yul\":6494:6633   */\n      swap1\n      pop\n        /* \"#utility.yul\":6221:6640   */\n      swap2\n      swap1\n      pop\n      jump\t// out\n        /* \"#utility.yul\":6646:6723   */\n    tag_129:\n        /* \"#utility.yul\":6683:6690   */\n      0x00\n        /* \"#utility.yul\":6712:6717   */\n      dup2\n        /* \"#utility.yul\":6701:6717   */\n      swap1\n      pop\n        /* \"#utility.yul\":6646:6723   */\n      swap2\n      swap1\n      pop\n      jump\t// out\n        /* \"#utility.yul\":6729:6847   */\n    tag_130:\n        /* \"#utility.yul\":6816:6840   */\n      tag_215\n        /* \"#utility.yul\":6834:6839   */\n      dup2\n        /* \"#utility.yul\":6816:6840   */\n      tag_129\n      jump\t// in\n    tag_215:\n        /* \"#utility.yul\":6811:6814   */\n      dup3\n        /* \"#utility.yul\":6804:6841   */\n      mstore\n        /* \"#utility.yul\":6729:6847   */\n      pop\n      pop\n      jump\t// out\n        /* \"#utility.yul\":6853:7406   */\n    tag_41:\n        /* \"#utility.yul\":7030:7034   */\n      0x00\n        /* \"#utility.yul\":7068:7071   */\n      0x80\n        /* \"#utility.yul\":7057:7066   */\n      dup3\n        /* \"#utility.yul\":7053:7072   */\n      add\n        /* \"#utility.yul\":7045:7072   */\n      swap1\n      pop\n        /* \"#utility.yul\":7082:7153   */\n      tag_217\n        /* \"#utility.yul\":7150:7151   */\n      0x00\n        /* \"#utility.yul\":7139:7148   */\n      dup4\n        /* \"#utility.yul\":7135:7152   */\n      add\n        /* \"#utility.yul\":7126:7132   */\n      dup8\n        /* \"#utility.yul\":7082:7153   */\n      tag_121\n      jump\t// in\n    tag_217:\n        /* \"#utility.yul\":7163:7235   */\n      tag_218\n        /* \"#utility.yul\":7231:7233   */\n      0x20\n        /* \"#utility.yul\":7220:7229   */\n      dup4\n        /* \"#utility.yul\":7216:7234   */\n      add\n        /* \"#utility.yul\":7207:7213   */\n      dup7\n        /* \"#utility.yul\":7163:7235   */\n      tag_121\n      jump\t// in\n    tag_218:\n        /* \"#utility.yul\":7245:7317   */\n      tag_219\n        /* \"#utility.yul\":7313:7315   */\n      0x40\n        /* \"#utility.yul\":7302:7311   */\n      dup4\n        /* \"#utility.yul\":7298:7316   */\n      add\n        /* \"#utility.yul\":7289:7295   */\n      dup6\n        /* \"#utility.yul\":7245:7317   */\n      tag_130\n      jump\t// in\n    tag_219:\n        /* \"#utility.yul\":7327:7399   */\n      tag_220\n        /* \"#utility.yul\":7395:7397   */\n      0x60\n        /* \"#utility.yul\":7384:7393   */\n      dup4\n        /* \"#utility.yul\":7380:7398   */\n      add\n        /* \"#utility.yul\":7371:7377   */\n      dup5\n        /* \"#utility.yul\":7327:7399   */\n      tag_130\n      jump\t// in\n    tag_220:\n        /* \"#utility.yul\":6853:7406   */\n      swap6\n      swap5\n      pop\n      pop\n      pop\n      pop\n      pop\n      jump\t// out\n        /* \"#utility.yul\":7412:7583   */\n    tag_131:\n        /* \"#utility.yul\":7552:7575   */\n      0x496e73756666696369656e742062616c616e63652e0000000000000000000000\n        /* \"#utility.yul\":7548:7549   */\n      0x00\n        /* \"#utility.yul\":7540:7546   */\n      dup3\n        /* \"#utility.yul\":7536:7550   */\n      add\n        /* \"#utility.yul\":7529:7576   */\n      mstore\n        /* \"#utility.yul\":7412:7583   */\n      pop\n      jump\t// out\n        /* \"#utility.yul\":7589:7955   */\n    tag_132:\n        /* \"#utility.yul\":7731:7734   */\n      0x00\n        /* \"#utility.yul\":7752:7819   */\n      tag_223\n        /* \"#utility.yul\":7816:7818   */\n      0x15\n        /* \"#utility.yul\":7811:7814   */\n      dup4\n        /* \"#utility.yul\":7752:7819   */\n      tag_122\n      jump\t// in\n    tag_223:\n        /* \"#utility.yul\":7745:7819   */\n      swap2\n      pop\n        /* \"#utility.yul\":7828:7921   */\n      tag_224\n        /* \"#utility.yul\":7917:7920   */\n      dup3\n        /* \"#utility.yul\":7828:7921   */\n      tag_131\n      jump\t// in\n    tag_224:\n        /* \"#utility.yul\":7946:7948   */\n      0x20\n        /* \"#utility.yul\":7941:7944   */\n      dup3\n        /* \"#utility.yul\":7937:7949   */\n      add\n        /* \"#utility.yul\":7930:7949   */\n      swap1\n      pop\n        /* \"#utility.yul\":7589:7955   */\n      swap2\n      swap1\n      pop\n      jump\t// out\n        /* \"#utility.yul\":7961:8380   */\n    tag_44:\n        /* \"#utility.yul\":8127:8131   */\n      0x00\n        /* \"#utility.yul\":8165:8167   */\n      0x20\n        /* \"#utility.yul\":8154:8163   */\n      dup3\n        /* \"#utility.yul\":8150:8168   */\n      add\n        /* \"#utility.yul\":8142:8168   */\n      swap1\n      pop\n        /* \"#utility.yul\":8214:8223   */\n      dup2\n        /* \"#utility.yul\":8208:8212   */\n      dup2\n        /* \"#utility.yul\":8204:8224   */\n      sub\n        /* \"#utility.yul\":8200:8201   */\n      0x00\n        /* \"#utility.yul\":8189:8198   */\n      dup4\n        /* \"#utility.yul\":8185:8202   */\n      add\n        /* \"#utility.yul\":8178:8225   */\n      mstore\n        /* \"#utility.yul\":8242:8373   */\n      tag_226\n        /* \"#utility.yul\":8368:8372   */\n      dup2\n        /* \"#utility.yul\":8242:8373   */\n      tag_132\n      jump\t// in\n    tag_226:\n        /* \"#utility.yul\":8234:8373   */\n      swap1\n      pop\n        /* \"#utility.yul\":7961:8380   */\n      swap2\n      swap1\n      pop\n      jump\t// out\n        /* \"#utility.yul\":8386:8718   */\n    tag_54:\n        /* \"#utility.yul\":8507:8511   */\n      0x00\n        /* \"#utility.yul\":8545:8547   */\n      0x40\n        /* \"#utility.yul\":8534:8543   */\n      dup3\n        /* \"#utility.yul\":8530:8548   */\n      add\n        /* \"#utility.yul\":8522:8548   */\n      swap1\n      pop\n        /* \"#utility.yul\":8558:8629   */\n      tag_228\n        /* \"#utility.yul\":8626:8627   */\n      0x00\n        /* \"#utility.yul\":8615:8624   */\n      dup4\n        /* \"#utility.yul\":8611:8628   */\n      add\n        /* \"#utility.yul\":8602:8608   */\n      dup6\n        /* \"#utility.yul\":8558:8629   */\n      tag_121\n      jump\t// in\n    tag_228:\n        /* \"#utility.yul\":8639:8711   */\n      tag_229\n        /* \"#utility.yul\":8707:8709   */\n      0x20\n        /* \"#utility.yul\":8696:8705   */\n      dup4\n        /* \"#utility.yul\":8692:8710   */\n      add\n        /* \"#utility.yul\":8683:8689   */\n      dup5\n        /* \"#utility.yul\":8639:8711   */\n      tag_130\n      jump\t// in\n    tag_229:\n        /* \"#utility.yul\":8386:8718   */\n      swap4\n      swap3\n      pop\n      pop\n      pop\n      jump\t// out\n        /* \"#utility.yul\":8724:8814   */\n    tag_133:\n        /* \"#utility.yul\":8758:8765   */\n      0x00\n        /* \"#utility.yul\":8801:8806   */\n      dup2\n        /* \"#utility.yul\":8794:8807   */\n      iszero\n        /* \"#utility.yul\":8787:8808   */\n      iszero\n        /* \"#utility.yul\":8776:8808   */\n      swap1\n      pop\n        /* \"#utility.yul\":8724:8814   */\n      swap2\n      swap1\n      pop\n      jump\t// out\n        /* \"#utility.yul\":8820:8936   */\n    tag_134:\n        /* \"#utility.yul\":8890:8911   */\n      tag_232\n        /* \"#utility.yul\":8905:8910   */\n      dup2\n        /* \"#utility.yul\":8890:8911   */\n      tag_133\n      jump\t// in\n    tag_232:\n        /* \"#utility.yul\":8883:8888   */\n      dup2\n        /* \"#utility.yul\":8880:8912   */\n      eq\n        /* \"#utility.yul\":8870:8930   */\n      tag_233\n      jumpi\n        /* \"#utility.yul\":8926:8927   */\n      0x00\n        /* \"#utility.yul\":8923:8924   */\n      dup1\n        /* \"#utility.yul\":8916:8928   */\n      revert\n        /* \"#utility.yul\":8870:8930   */\n    tag_233:\n        /* \"#utility.yul\":8820:8936   */\n      pop\n      jump\t// out\n        /* \"#utility.yul\":8942:9079   */\n    tag_135:\n        /* \"#utility.yul\":8996:9001   */\n      0x00\n        /* \"#utility.yul\":9027:9033   */\n      dup2\n        /* \"#utility.yul\":9021:9034   */\n      mload\n        /* \"#utility.yul\":9012:9034   */\n      swap1\n      pop\n        /* \"#utility.yul\":9043:9073   */\n      tag_235\n        /* \"#utility.yul\":9067:9072   */\n      dup2\n        /* \"#utility.yul\":9043:9073   */\n      tag_134\n      jump\t// in\n    tag_235:\n        /* \"#utility.yul\":8942:9079   */\n      swap3\n      swap2\n      pop\n      pop\n      jump\t// out\n        /* \"#utility.yul\":9085:9430   */\n    tag_58:\n        /* \"#utility.yul\":9152:9158   */\n      0x00\n        /* \"#utility.yul\":9201:9203   */\n      0x20\n        /* \"#utility.yul\":9189:9198   */\n      dup3\n        /* \"#utility.yul\":9180:9187   */\n      dup5\n        /* \"#utility.yul\":9176:9199   */\n      sub\n        /* \"#utility.yul\":9172:9204   */\n      slt\n        /* \"#utility.yul\":9169:9288   */\n      iszero\n      tag_237\n      jumpi\n        /* \"#utility.yul\":9207:9286   */\n      tag_238\n      tag_111\n      jump\t// in\n    tag_238:\n        /* \"#utility.yul\":9169:9288   */\n    tag_237:\n        /* \"#utility.yul\":9327:9328   */\n      0x00\n        /* \"#utility.yul\":9352:9413   */\n      tag_239\n        /* \"#utility.yul\":9405:9412   */\n      dup5\n        /* \"#utility.yul\":9396:9402   */\n      dup3\n        /* \"#utility.yul\":9385:9394   */\n      dup6\n        /* \"#utility.yul\":9381:9403   */\n      add\n        /* \"#utility.yul\":9352:9413   */\n      tag_135\n      jump\t// in\n    tag_239:\n        /* \"#utility.yul\":9342:9413   */\n      swap2\n      pop\n        /* \"#utility.yul\":9298:9423   */\n      pop\n        /* \"#utility.yul\":9085:9430   */\n      swap3\n      swap2\n      pop\n      pop\n      jump\t// out\n        /* \"#utility.yul\":9436:9584   */\n    tag_136:\n        /* \"#utility.yul\":9538:9549   */\n      0x00\n        /* \"#utility.yul\":9575:9578   */\n      dup2\n        /* \"#utility.yul\":9560:9578   */\n      swap1\n      pop\n        /* \"#utility.yul\":9436:9584   */\n      swap3\n      swap2\n      pop\n      pop\n      jump\t// out\n        /* \"#utility.yul\":9590:9815   */\n    tag_137:\n        /* \"#utility.yul\":9730:9764   */\n      0x546f6b656e207472616e73666572206661696c656420666f7220746f6b656e20\n        /* \"#utility.yul\":9726:9727   */\n      0x00\n        /* \"#utility.yul\":9718:9724   */\n      dup3\n        /* \"#utility.yul\":9714:9728   */\n      add\n        /* \"#utility.yul\":9707:9765   */\n      mstore\n        /* \"#utility.yul\":9799:9807   */\n      0x696e646578200000000000000000000000000000000000000000000000000000\n        /* \"#utility.yul\":9794:9796   */\n      0x20\n        /* \"#utility.yul\":9786:9792   */\n      dup3\n        /* \"#utility.yul\":9782:9797   */\n      add\n        /* \"#utility.yul\":9775:9808   */\n      mstore\n        /* \"#utility.yul\":9590:9815   */\n      pop\n      jump\t// out\n        /* \"#utility.yul\":9821:10223   */\n    tag_138:\n        /* \"#utility.yul\":9981:9984   */\n      0x00\n        /* \"#utility.yul\":10002:10087   */\n      tag_243\n        /* \"#utility.yul\":10084:10086   */\n      0x26\n        /* \"#utility.yul\":10079:10082   */\n      dup4\n        /* \"#utility.yul\":10002:10087   */\n      tag_136\n      jump\t// in\n    tag_243:\n        /* \"#utility.yul\":9995:10087   */\n      swap2\n      pop\n        /* \"#utility.yul\":10096:10189   */\n      tag_244\n        /* \"#utility.yul\":10185:10188   */\n      dup3\n        /* \"#utility.yul\":10096:10189   */\n      tag_137\n      jump\t// in\n    tag_244:\n        /* \"#utility.yul\":10214:10216   */\n      0x26\n        /* \"#utility.yul\":10209:10212   */\n      dup3\n        /* \"#utility.yul\":10205:10217   */\n      add\n        /* \"#utility.yul\":10198:10217   */\n      swap1\n      pop\n        /* \"#utility.yul\":9821:10223   */\n      swap2\n      swap1\n      pop\n      jump\t// out\n        /* \"#utility.yul\":10229:10328   */\n    tag_139:\n        /* \"#utility.yul\":10281:10287   */\n      0x00\n        /* \"#utility.yul\":10315:10320   */\n      dup2\n        /* \"#utility.yul\":10309:10321   */\n      mload\n        /* \"#utility.yul\":10299:10321   */\n      swap1\n      pop\n        /* \"#utility.yul\":10229:10328   */\n      swap2\n      swap1\n      pop\n      jump\t// out\n        /* \"#utility.yul\":10334:10473   */\n    tag_140:\n        /* \"#utility.yul\":10423:10429   */\n      dup3\n        /* \"#utility.yul\":10418:10421   */\n      dup2\n        /* \"#utility.yul\":10413:10416   */\n      dup4\n        /* \"#utility.yul\":10407:10430   */\n      mcopy\n        /* \"#utility.yul\":10464:10465   */\n      0x00\n        /* \"#utility.yul\":10455:10461   */\n      dup4\n        /* \"#utility.yul\":10450:10453   */\n      dup4\n        /* \"#utility.yul\":10446:10462   */\n      add\n        /* \"#utility.yul\":10439:10466   */\n      mstore\n        /* \"#utility.yul\":10334:10473   */\n      pop\n      pop\n      pop\n      jump\t// out\n        /* \"#utility.yul\":10479:10869   */\n    tag_141:\n        /* \"#utility.yul\":10585:10588   */\n      0x00\n        /* \"#utility.yul\":10613:10652   */\n      tag_248\n        /* \"#utility.yul\":10646:10651   */\n      dup3\n        /* \"#utility.yul\":10613:10652   */\n      tag_139\n      jump\t// in\n    tag_248:\n        /* \"#utility.yul\":10668:10757   */\n      tag_249\n        /* \"#utility.yul\":10750:10756   */\n      dup2\n        /* \"#utility.yul\":10745:10748   */\n      dup6\n        /* \"#utility.yul\":10668:10757   */\n      tag_136\n      jump\t// in\n    tag_249:\n        /* \"#utility.yul\":10661:10757   */\n      swap4\n      pop\n        /* \"#utility.yul\":10766:10831   */\n      tag_250\n        /* \"#utility.yul\":10824:10830   */\n      dup2\n        /* \"#utility.yul\":10819:10822   */\n      dup6\n        /* \"#utility.yul\":10812:10816   */\n      0x20\n        /* \"#utility.yul\":10805:10810   */\n      dup7\n        /* \"#utility.yul\":10801:10817   */\n      add\n        /* \"#utility.yul\":10766:10831   */\n      tag_140\n      jump\t// in\n    tag_250:\n        /* \"#utility.yul\":10856:10862   */\n      dup1\n        /* \"#utility.yul\":10851:10854   */\n      dup5\n        /* \"#utility.yul\":10847:10863   */\n      add\n        /* \"#utility.yul\":10840:10863   */\n      swap2\n      pop\n        /* \"#utility.yul\":10589:10869   */\n      pop\n        /* \"#utility.yul\":10479:10869   */\n      swap3\n      swap2\n      pop\n      pop\n      jump\t// out\n        /* \"#utility.yul\":10875:11416   */\n    tag_62:\n        /* \"#utility.yul\":11108:11111   */\n      0x00\n        /* \"#utility.yul\":11130:11278   */\n      tag_252\n        /* \"#utility.yul\":11274:11277   */\n      dup3\n        /* \"#utility.yul\":11130:11278   */\n      tag_138\n      jump\t// in\n    tag_252:\n        /* \"#utility.yul\":11123:11278   */\n      swap2\n      pop\n        /* \"#utility.yul\":11295:11390   */\n      tag_253\n        /* \"#utility.yul\":11386:11389   */\n      dup3\n        /* \"#utility.yul\":11377:11383   */\n      dup5\n        /* \"#utility.yul\":11295:11390   */\n      tag_141\n      jump\t// in\n    tag_253:\n        /* \"#utility.yul\":11288:11390   */\n      swap2\n      pop\n        /* \"#utility.yul\":11407:11410   */\n      dup2\n        /* \"#utility.yul\":11400:11410   */\n      swap1\n      pop\n        /* \"#utility.yul\":10875:11416   */\n      swap3\n      swap2\n      pop\n      pop\n      jump\t// out\n        /* \"#utility.yul\":11422:11524   */\n    tag_142:\n        /* \"#utility.yul\":11463:11469   */\n      0x00\n        /* \"#utility.yul\":11514:11516   */\n      0x1f\n        /* \"#utility.yul\":11510:11517   */\n      not\n        /* \"#utility.yul\":11505:11507   */\n      0x1f\n        /* \"#utility.yul\":11498:11503   */\n      dup4\n        /* \"#utility.yul\":11494:11508   */\n      add\n        /* \"#utility.yul\":11490:11518   */\n      and\n        /* \"#utility.yul\":11480:11518   */\n      swap1\n      pop\n        /* \"#utility.yul\":11422:11524   */\n      swap2\n      swap1\n      pop\n      jump\t// out\n        /* \"#utility.yul\":11530:11907   */\n    tag_143:\n        /* \"#utility.yul\":11618:11621   */\n      0x00\n        /* \"#utility.yul\":11646:11685   */\n      tag_256\n        /* \"#utility.yul\":11679:11684   */\n      dup3\n        /* \"#utility.yul\":11646:11685   */\n      tag_139\n      jump\t// in\n    tag_256:\n        /* \"#utility.yul\":11701:11772   */\n      tag_257\n        /* \"#utility.yul\":11765:11771   */\n      dup2\n        /* \"#utility.yul\":11760:11763   */\n      dup6\n        /* \"#utility.yul\":11701:11772   */\n      tag_122\n      jump\t// in\n    tag_257:\n        /* \"#utility.yul\":11694:11772   */\n      swap4\n      pop\n        /* \"#utility.yul\":11781:11846   */\n      tag_258\n        /* \"#utility.yul\":11839:11845   */\n      dup2\n        /* \"#utility.yul\":11834:11837   */\n      dup6\n        /* \"#utility.yul\":11827:11831   */\n      0x20\n        /* \"#utility.yul\":11820:11825   */\n      dup7\n        /* \"#utility.yul\":11816:11832   */\n      add\n        /* \"#utility.yul\":11781:11846   */\n      tag_140\n      jump\t// in\n    tag_258:\n        /* \"#utility.yul\":11871:11900   */\n      tag_259\n        /* \"#utility.yul\":11893:11899   */\n      dup2\n        /* \"#utility.yul\":11871:11900   */\n      tag_142\n      jump\t// in\n    tag_259:\n        /* \"#utility.yul\":11866:11869   */\n      dup5\n        /* \"#utility.yul\":11862:11901   */\n      add\n        /* \"#utility.yul\":11855:11901   */\n      swap2\n      pop\n        /* \"#utility.yul\":11622:11907   */\n      pop\n        /* \"#utility.yul\":11530:11907   */\n      swap3\n      swap2\n      pop\n      pop\n      jump\t// out\n        /* \"#utility.yul\":11913:12226   */\n    tag_65:\n        /* \"#utility.yul\":12026:12030   */\n      0x00\n        /* \"#utility.yul\":12064:12066   */\n      0x20\n        /* \"#utility.yul\":12053:12062   */\n      dup3\n        /* \"#utility.yul\":12049:12067   */\n      add\n        /* \"#utility.yul\":12041:12067   */\n      swap1\n      pop\n        /* \"#utility.yul\":12113:12122   */\n      dup2\n        /* \"#utility.yul\":12107:12111   */\n      dup2\n        /* \"#utility.yul\":12103:12123   */\n      sub\n        /* \"#utility.yul\":12099:12100   */\n      0x00\n        /* \"#utility.yul\":12088:12097   */\n      dup4\n        /* \"#utility.yul\":12084:12101   */\n      add\n        /* \"#utility.yul\":12077:12124   */\n      mstore\n        /* \"#utility.yul\":12141:12219   */\n      tag_261\n        /* \"#utility.yul\":12214:12218   */\n      dup2\n        /* \"#utility.yul\":12205:12211   */\n      dup5\n        /* \"#utility.yul\":12141:12219   */\n      tag_143\n      jump\t// in\n    tag_261:\n        /* \"#utility.yul\":12133:12219   */\n      swap1\n      pop\n        /* \"#utility.yul\":11913:12226   */\n      swap3\n      swap2\n      pop\n      pop\n      jump\t// out\n        /* \"#utility.yul\":12232:12408   */\n    tag_144:\n        /* \"#utility.yul\":12372:12400   */\n      0x496e76616c6964206164647265737320666f722061646d696e2e000000000000\n        /* \"#utility.yul\":12368:12369   */\n      0x00\n        /* \"#utility.yul\":12360:12366   */\n      dup3\n        /* \"#utility.yul\":12356:12370   */\n      add\n        /* \"#utility.yul\":12349:12401   */\n      mstore\n        /* \"#utility.yul\":12232:12408   */\n      pop\n      jump\t// out\n        /* \"#utility.yul\":12414:12780   */\n    tag_145:\n        /* \"#utility.yul\":12556:12559   */\n      0x00\n        /* \"#utility.yul\":12577:12644   */\n      tag_264\n        /* \"#utility.yul\":12641:12643   */\n      0x1a\n        /* \"#utility.yul\":12636:12639   */\n      dup4\n        /* \"#utility.yul\":12577:12644   */\n      tag_122\n      jump\t// in\n    tag_264:\n        /* \"#utility.yul\":12570:12644   */\n      swap2\n      pop\n        /* \"#utility.yul\":12653:12746   */\n      tag_265\n        /* \"#utility.yul\":12742:12745   */\n      dup3\n        /* \"#utility.yul\":12653:12746   */\n      tag_144\n      jump\t// in\n    tag_265:\n        /* \"#utility.yul\":12771:12773   */\n      0x20\n        /* \"#utility.yul\":12766:12769   */\n      dup3\n        /* \"#utility.yul\":12762:12774   */\n      add\n        /* \"#utility.yul\":12755:12774   */\n      swap1\n      pop\n        /* \"#utility.yul\":12414:12780   */\n      swap2\n      swap1\n      pop\n      jump\t// out\n        /* \"#utility.yul\":12786:13205   */\n    tag_72:\n        /* \"#utility.yul\":12952:12956   */\n      0x00\n        /* \"#utility.yul\":12990:12992   */\n      0x20\n        /* \"#utility.yul\":12979:12988   */\n      dup3\n        /* \"#utility.yul\":12975:12993   */\n      add\n        /* \"#utility.yul\":12967:12993   */\n      swap1\n      pop\n        /* \"#utility.yul\":13039:13048   */\n      dup2\n        /* \"#utility.yul\":13033:13037   */\n      dup2\n        /* \"#utility.yul\":13029:13049   */\n      sub\n        /* \"#utility.yul\":13025:13026   */\n      0x00\n        /* \"#utility.yul\":13014:13023   */\n      dup4\n        /* \"#utility.yul\":13010:13027   */\n      add\n        /* \"#utility.yul\":13003:13050   */\n      mstore\n        /* \"#utility.yul\":13067:13198   */\n      tag_267\n        /* \"#utility.yul\":13193:13197   */\n      dup2\n        /* \"#utility.yul\":13067:13198   */\n      tag_145\n      jump\t// in\n    tag_267:\n        /* \"#utility.yul\":13059:13198   */\n      swap1\n      pop\n        /* \"#utility.yul\":12786:13205   */\n      swap2\n      swap1\n      pop\n      jump\t// out\n        /* \"#utility.yul\":13211:13309   */\n    tag_146:\n        /* \"#utility.yul\":13262:13268   */\n      0x00\n        /* \"#utility.yul\":13296:13301   */\n      dup2\n        /* \"#utility.yul\":13290:13302   */\n      mload\n        /* \"#utility.yul\":13280:13302   */\n      swap1\n      pop\n        /* \"#utility.yul\":13211:13309   */\n      swap2\n      swap1\n      pop\n      jump\t// out\n        /* \"#utility.yul\":13315:13462   */\n    tag_147:\n        /* \"#utility.yul\":13416:13427   */\n      0x00\n        /* \"#utility.yul\":13453:13456   */\n      dup2\n        /* \"#utility.yul\":13438:13456   */\n      swap1\n      pop\n        /* \"#utility.yul\":13315:13462   */\n      swap3\n      swap2\n      pop\n      pop\n      jump\t// out\n        /* \"#utility.yul\":13468:13854   */\n    tag_148:\n        /* \"#utility.yul\":13572:13575   */\n      0x00\n        /* \"#utility.yul\":13600:13638   */\n      tag_271\n        /* \"#utility.yul\":13632:13637   */\n      dup3\n        /* \"#utility.yul\":13600:13638   */\n      tag_146\n      jump\t// in\n    tag_271:\n        /* \"#utility.yul\":13654:13742   */\n      tag_272\n        /* \"#utility.yul\":13735:13741   */\n      dup2\n        /* \"#utility.yul\":13730:13733   */\n      dup6\n        /* \"#utility.yul\":13654:13742   */\n      tag_147\n      jump\t// in\n    tag_272:\n        /* \"#utility.yul\":13647:13742   */\n      swap4\n      pop\n        /* \"#utility.yul\":13751:13816   */\n      tag_273\n        /* \"#utility.yul\":13809:13815   */\n      dup2\n        /* \"#utility.yul\":13804:13807   */\n      dup6\n        /* \"#utility.yul\":13797:13801   */\n      0x20\n        /* \"#utility.yul\":13790:13795   */\n      dup7\n        /* \"#utility.yul\":13786:13802   */\n      add\n        /* \"#utility.yul\":13751:13816   */\n      tag_140\n      jump\t// in\n    tag_273:\n        /* \"#utility.yul\":13841:13847   */\n      dup1\n        /* \"#utility.yul\":13836:13839   */\n      dup5\n        /* \"#utility.yul\":13832:13848   */\n      add\n        /* \"#utility.yul\":13825:13848   */\n      swap2\n      pop\n        /* \"#utility.yul\":13576:13854   */\n      pop\n        /* \"#utility.yul\":13468:13854   */\n      swap3\n      swap2\n      pop\n      pop\n      jump\t// out\n        /* \"#utility.yul\":13860:14131   */\n    tag_76:\n        /* \"#utility.yul\":13990:13993   */\n      0x00\n        /* \"#utility.yul\":14012:14105   */\n      tag_275\n        /* \"#utility.yul\":14101:14104   */\n      dup3\n        /* \"#utility.yul\":14092:14098   */\n      dup5\n        /* \"#utility.yul\":14012:14105   */\n      tag_148\n      jump\t// in\n    tag_275:\n        /* \"#utility.yul\":14005:14105   */\n      swap2\n      pop\n        /* \"#utility.yul\":14122:14125   */\n      dup2\n        /* \"#utility.yul\":14115:14125   */\n      swap1\n      pop\n        /* \"#utility.yul\":13860:14131   */\n      swap3\n      swap2\n      pop\n      pop\n      jump\t// out\n        /* \"#utility.yul\":14137:14307   */\n    tag_149:\n        /* \"#utility.yul\":14277:14299   */\n      0x45787465726e616c2063616c6c206661696c6564000000000000000000000000\n        /* \"#utility.yul\":14273:14274   */\n      0x00\n        /* \"#utility.yul\":14265:14271   */\n      dup3\n        /* \"#utility.yul\":14261:14275   */\n      add\n        /* \"#utility.yul\":14254:14300   */\n      mstore\n        /* \"#utility.yul\":14137:14307   */\n      pop\n      jump\t// out\n        /* \"#utility.yul\":14313:14679   */\n    tag_150:\n        /* \"#utility.yul\":14455:14458   */\n      0x00\n        /* \"#utility.yul\":14476:14543   */\n      tag_278\n        /* \"#utility.yul\":14540:14542   */\n      0x14\n        /* \"#utility.yul\":14535:14538   */\n      dup4\n        /* \"#utility.yul\":14476:14543   */\n      tag_122\n      jump\t// in\n    tag_278:\n        /* \"#utility.yul\":14469:14543   */\n      swap2\n      pop\n        /* \"#utility.yul\":14552:14645   */\n      tag_279\n        /* \"#utility.yul\":14641:14644   */\n      dup3\n        /* \"#utility.yul\":14552:14645   */\n      tag_149\n      jump\t// in\n    tag_279:\n        /* \"#utility.yul\":14670:14672   */\n      0x20\n        /* \"#utility.yul\":14665:14668   */\n      dup3\n        /* \"#utility.yul\":14661:14673   */\n      add\n        /* \"#utility.yul\":14654:14673   */\n      swap1\n      pop\n        /* \"#utility.yul\":14313:14679   */\n      swap2\n      swap1\n      pop\n      jump\t// out\n        /* \"#utility.yul\":14685:15104   */\n    tag_82:\n        /* \"#utility.yul\":14851:14855   */\n      0x00\n        /* \"#utility.yul\":14889:14891   */\n      0x20\n        /* \"#utility.yul\":14878:14887   */\n      dup3\n        /* \"#utility.yul\":14874:14892   */\n      add\n        /* \"#utility.yul\":14866:14892   */\n      swap1\n      pop\n        /* \"#utility.yul\":14938:14947   */\n      dup2\n        /* \"#utility.yul\":14932:14936   */\n      dup2\n        /* \"#utility.yul\":14928:14948   */\n      sub\n        /* \"#utility.yul\":14924:14925   */\n      0x00\n        /* \"#utility.yul\":14913:14922   */\n      dup4\n        /* \"#utility.yul\":14909:14926   */\n      add\n        /* \"#utility.yul\":14902:14949   */\n      mstore\n        /* \"#utility.yul\":14966:15097   */\n      tag_281\n        /* \"#utility.yul\":15092:15096   */\n      dup2\n        /* \"#utility.yul\":14966:15097   */\n      tag_150\n      jump\t// in\n    tag_281:\n        /* \"#utility.yul\":14958:15097   */\n      swap1\n      pop\n        /* \"#utility.yul\":14685:15104   */\n      swap2\n      swap1\n      pop\n      jump\t// out\n        /* \"#utility.yul\":15110:15232   */\n    tag_151:\n        /* \"#utility.yul\":15183:15207   */\n      tag_283\n        /* \"#utility.yul\":15201:15206   */\n      dup2\n        /* \"#utility.yul\":15183:15207   */\n      tag_129\n      jump\t// in\n    tag_283:\n        /* \"#utility.yul\":15176:15181   */\n      dup2\n        /* \"#utility.yul\":15173:15208   */\n      eq\n        /* \"#utility.yul\":15163:15226   */\n      tag_284\n      jumpi\n        /* \"#utility.yul\":15222:15223   */\n      0x00\n        /* \"#utility.yul\":15219:15220   */\n      dup1\n        /* \"#utility.yul\":15212:15224   */\n      revert\n        /* \"#utility.yul\":15163:15226   */\n    tag_284:\n        /* \"#utility.yul\":15110:15232   */\n      pop\n      jump\t// out\n        /* \"#utility.yul\":15238:15381   */\n    tag_152:\n        /* \"#utility.yul\":15295:15300   */\n      0x00\n        /* \"#utility.yul\":15326:15332   */\n      dup2\n        /* \"#utility.yul\":15320:15333   */\n      mload\n        /* \"#utility.yul\":15311:15333   */\n      swap1\n      pop\n        /* \"#utility.yul\":15342:15375   */\n      tag_286\n        /* \"#utility.yul\":15369:15374   */\n      dup2\n        /* \"#utility.yul\":15342:15375   */\n      tag_151\n      jump\t// in\n    tag_286:\n        /* \"#utility.yul\":15238:15381   */\n      swap3\n      swap2\n      pop\n      pop\n      jump\t// out\n        /* \"#utility.yul\":15387:15738   */\n    tag_84:\n        /* \"#utility.yul\":15457:15463   */\n      0x00\n        /* \"#utility.yul\":15506:15508   */\n      0x20\n        /* \"#utility.yul\":15494:15503   */\n      dup3\n        /* \"#utility.yul\":15485:15492   */\n      dup5\n        /* \"#utility.yul\":15481:15504   */\n      sub\n        /* \"#utility.yul\":15477:15509   */\n      slt\n        /* \"#utility.yul\":15474:15593   */\n      iszero\n      tag_288\n      jumpi\n        /* \"#utility.yul\":15512:15591   */\n      tag_289\n      tag_111\n      jump\t// in\n    tag_289:\n        /* \"#utility.yul\":15474:15593   */\n    tag_288:\n        /* \"#utility.yul\":15632:15633   */\n      0x00\n        /* \"#utility.yul\":15657:15721   */\n      tag_290\n        /* \"#utility.yul\":15713:15720   */\n      dup5\n        /* \"#utility.yul\":15704:15710   */\n      dup3\n        /* \"#utility.yul\":15693:15702   */\n      dup6\n        /* \"#utility.yul\":15689:15711   */\n      add\n        /* \"#utility.yul\":15657:15721   */\n      tag_152\n      jump\t// in\n    tag_290:\n        /* \"#utility.yul\":15647:15721   */\n      swap2\n      pop\n        /* \"#utility.yul\":15603:15731   */\n      pop\n        /* \"#utility.yul\":15387:15738   */\n      swap3\n      swap2\n      pop\n      pop\n      jump\t// out\n        /* \"#utility.yul\":15744:15924   */\n    tag_153:\n        /* \"#utility.yul\":15792:15869   */\n      0x4e487b7100000000000000000000000000000000000000000000000000000000\n        /* \"#utility.yul\":15789:15790   */\n      0x00\n        /* \"#utility.yul\":15782:15870   */\n      mstore\n        /* \"#utility.yul\":15889:15893   */\n      0x11\n        /* \"#utility.yul\":15886:15887   */\n      0x04\n        /* \"#utility.yul\":15879:15894   */\n      mstore\n        /* \"#utility.yul\":15913:15917   */\n      0x24\n        /* \"#utility.yul\":15910:15911   */\n      0x00\n        /* \"#utility.yul\":15903:15918   */\n      revert\n        /* \"#utility.yul\":15930:16163   */\n    tag_90:\n        /* \"#utility.yul\":15969:15972   */\n      0x00\n        /* \"#utility.yul\":15992:16016   */\n      tag_293\n        /* \"#utility.yul\":16010:16015   */\n      dup3\n        /* \"#utility.yul\":15992:16016   */\n      tag_129\n      jump\t// in\n    tag_293:\n        /* \"#utility.yul\":15983:16016   */\n      swap2\n      pop\n        /* \"#utility.yul\":16038:16104   */\n      0xffffffffffffffffffffffffffffffffffffffffffffffffffffffffffffffff\n        /* \"#utility.yul\":16031:16036   */\n      dup3\n        /* \"#utility.yul\":16028:16105   */\n      sub\n        /* \"#utility.yul\":16025:16128   */\n      tag_294\n      jumpi\n        /* \"#utility.yul\":16108:16126   */\n      tag_295\n      tag_153\n      jump\t// in\n    tag_295:\n        /* \"#utility.yul\":16025:16128   */\n    tag_294:\n        /* \"#utility.yul\":16155:16156   */\n      0x01\n        /* \"#utility.yul\":16148:16153   */\n      dup3\n        /* \"#utility.yul\":16144:16157   */\n      add\n        /* \"#utility.yul\":16137:16157   */\n      swap1\n      pop\n        /* \"#utility.yul\":15930:16163   */\n      swap2\n      swap1\n      pop\n      jump\t// out\n        /* \"#utility.yul\":16169:16349   */\n    tag_154:\n        /* \"#utility.yul\":16217:16294   */\n      0x4e487b7100000000000000000000000000000000000000000000000000000000\n        /* \"#utility.yul\":16214:16215   */\n      0x00\n        /* \"#utility.yul\":16207:16295   */\n      mstore\n        /* \"#utility.yul\":16314:16318   */\n      0x12\n        /* \"#utility.yul\":16311:16312   */\n      0x04\n        /* \"#utility.yul\":16304:16319   */\n      mstore\n        /* \"#utility.yul\":16338:16342   */\n      0x24\n        /* \"#utility.yul\":16335:16336   */\n      0x00\n        /* \"#utility.yul\":16328:16343   */\n      revert\n        /* \"#utility.yul\":16355:16540   */\n    tag_92:\n        /* \"#utility.yul\":16395:16396   */\n      0x00\n        /* \"#utility.yul\":16412:16432   */\n      tag_298\n        /* \"#utility.yul\":16430:16431   */\n      dup3\n        /* \"#utility.yul\":16412:16432   */\n      tag_129\n      jump\t// in\n    tag_298:\n        /* \"#utility.yul\":16407:16432   */\n      swap2\n      pop\n        /* \"#utility.yul\":16446:16466   */\n      tag_299\n        /* \"#utility.yul\":16464:16465   */\n      dup4\n        /* \"#utility.yul\":16446:16466   */\n      tag_129\n      jump\t// in\n    tag_299:\n        /* \"#utility.yul\":16441:16466   */\n      swap3\n      pop\n        /* \"#utility.yul\":16485:16486   */\n      dup3\n        /* \"#utility.yul\":16475:16510   */\n      tag_300\n      jumpi\n        /* \"#utility.yul\":16490:16508   */\n      tag_301\n      tag_154\n      jump\t// in\n    tag_301:\n        /* \"#utility.yul\":16475:16510   */\n    tag_300:\n        /* \"#utility.yul\":16532:16533   */\n      dup3\n        /* \"#utility.yul\":16529:16530   */\n      dup3\n        /* \"#utility.yul\":16525:16534   */\n      div\n        /* \"#utility.yul\":16520:16534   */\n      swap1\n      pop\n        /* \"#utility.yul\":16355:16540   */\n      swap3\n      swap2\n      pop\n      pop\n      jump\t// out\n        /* \"#utility.yul\":16546:16726   */\n    tag_95:\n        /* \"#utility.yul\":16594:16671   */\n      0x4e487b7100000000000000000000000000000000000000000000000000000000\n        /* \"#utility.yul\":16591:16592   */\n      0x00\n        /* \"#utility.yul\":16584:16672   */\n      mstore\n        /* \"#utility.yul\":16691:16695   */\n      0x41\n        /* \"#utility.yul\":16688:16689   */\n      0x04\n        /* \"#utility.yul\":16681:16696   */\n      mstore\n        /* \"#utility.yul\":16715:16719   */\n      0x24\n        /* \"#utility.yul\":16712:16713   */\n      0x00\n        /* \"#utility.yul\":16705:16720   */\n      revert\n        /* \"#utility.yul\":16732:16926   */\n    tag_100:\n        /* \"#utility.yul\":16772:16776   */\n      0x00\n        /* \"#utility.yul\":16792:16812   */\n      tag_304\n        /* \"#utility.yul\":16810:16811   */\n      dup3\n        /* \"#utility.yul\":16792:16812   */\n      tag_129\n      jump\t// in\n    tag_304:\n        /* \"#utility.yul\":16787:16812   */\n      swap2\n      pop\n        /* \"#utility.yul\":16826:16846   */\n      tag_305\n        /* \"#utility.yul\":16844:16845   */\n      dup4\n        /* \"#utility.yul\":16826:16846   */\n      tag_129\n      jump\t// in\n    tag_305:\n        /* \"#utility.yul\":16821:16846   */\n      swap3\n      pop\n        /* \"#utility.yul\":16870:16871   */\n      dup3\n        /* \"#utility.yul\":16867:16868   */\n      dup3\n        /* \"#utility.yul\":16863:16872   */\n      sub\n        /* \"#utility.yul\":16855:16872   */\n      swap1\n      pop\n        /* \"#utility.yul\":16894:16895   */\n      dup2\n        /* \"#utility.yul\":16888:16892   */\n      dup2\n        /* \"#utility.yul\":16885:16896   */\n      gt\n        /* \"#utility.yul\":16882:16919   */\n      iszero\n      tag_306\n      jumpi\n        /* \"#utility.yul\":16899:16917   */\n      tag_307\n      tag_153\n      jump\t// in\n    tag_307:\n        /* \"#utility.yul\":16882:16919   */\n    tag_306:\n        /* \"#utility.yul\":16732:16926   */\n      swap3\n      swap2\n      pop\n      pop\n      jump\t// out\n        /* \"#utility.yul\":16932:17342   */\n    tag_103:\n        /* \"#utility.yul\":16972:16979   */\n      0x00\n        /* \"#utility.yul\":16995:17015   */\n      tag_309\n        /* \"#utility.yul\":17013:17014   */\n      dup3\n        /* \"#utility.yul\":16995:17015   */\n      tag_129\n      jump\t// in\n    tag_309:\n        /* \"#utility.yul\":16990:17015   */\n      swap2\n      pop\n        /* \"#utility.yul\":17029:17049   */\n      tag_310\n        /* \"#utility.yul\":17047:17048   */\n      dup4\n        /* \"#utility.yul\":17029:17049   */\n      tag_129\n      jump\t// in\n    tag_310:\n        /* \"#utility.yul\":17024:17049   */\n      swap3\n      pop\n        /* \"#utility.yul\":17084:17085   */\n      dup3\n        /* \"#utility.yul\":17081:17082   */\n      dup3\n        /* \"#utility.yul\":17077:17086   */\n      mul\n        /* \"#utility.yul\":17106:17136   */\n      tag_311\n        /* \"#utility.yul\":17124:17135   */\n      dup2\n        /* \"#utility.yul\":17106:17136   */\n      tag_129\n      jump\t// in\n    tag_311:\n        /* \"#utility.yul\":17095:17136   */\n      swap2\n      pop\n        /* \"#utility.yul\":17285:17286   */\n      dup3\n        /* \"#utility.yul\":17276:17283   */\n      dup3\n        /* \"#utility.yul\":17272:17287   */\n      div\n        /* \"#utility.yul\":17269:17270   */\n      dup5\n        /* \"#utility.yul\":17266:17288   */\n      eq\n        /* \"#utility.yul\":17246:17247   */\n      dup4\n        /* \"#utility.yul\":17239:17248   */\n      iszero\n        /* \"#utility.yul\":17219:17302   */\n      or\n        /* \"#utility.yul\":17196:17335   */\n      tag_312\n      jumpi\n        /* \"#utility.yul\":17315:17333   */\n      tag_313\n      tag_153\n      jump\t// in\n    tag_313:\n        /* \"#utility.yul\":17196:17335   */\n    tag_312:\n        /* \"#utility.yul\":16980:17342   */\n      pop\n        /* \"#utility.yul\":16932:17342   */\n      swap3\n      swap2\n      pop\n      pop\n      jump\t// out\n        /* \"#utility.yul\":17348:17434   */\n    tag_155:\n        /* \"#utility.yul\":17383:17390   */\n      0x00\n        /* \"#utility.yul\":17423:17427   */\n      0xff\n        /* \"#utility.yul\":17416:17421   */\n      dup3\n        /* \"#utility.yul\":17412:17428   */\n      and\n        /* \"#utility.yul\":17401:17428   */\n      swap1\n      pop\n        /* \"#utility.yul\":17348:17434   */\n      swap2\n      swap1\n      pop\n      jump\t// out\n        /* \"#utility.yul\":17440:17628   */\n    tag_106:\n        /* \"#utility.yul\":17478:17481   */\n      0x00\n        /* \"#utility.yul\":17497:17515   */\n      tag_316\n        /* \"#utility.yul\":17513:17514   */\n      dup3\n        /* \"#utility.yul\":17497:17515   */\n      tag_155\n      jump\t// in\n    tag_316:\n        /* \"#utility.yul\":17492:17515   */\n      swap2\n      pop\n        /* \"#utility.yul\":17529:17547   */\n      tag_317\n        /* \"#utility.yul\":17545:17546   */\n      dup4\n        /* \"#utility.yul\":17529:17547   */\n      tag_155\n      jump\t// in\n    tag_317:\n        /* \"#utility.yul\":17524:17547   */\n      swap3\n      pop\n        /* \"#utility.yul\":17570:17571   */\n      dup3\n        /* \"#utility.yul\":17567:17568   */\n      dup3\n        /* \"#utility.yul\":17563:17572   */\n      add\n        /* \"#utility.yul\":17556:17572   */\n      swap1\n      pop\n        /* \"#utility.yul\":17593:17597   */\n      0xff\n        /* \"#utility.yul\":17588:17591   */\n      dup2\n        /* \"#utility.yul\":17585:17598   */\n      gt\n        /* \"#utility.yul\":17582:17621   */\n      iszero\n      tag_318\n      jumpi\n        /* \"#utility.yul\":17601:17619   */\n      tag_319\n      tag_153\n      jump\t// in\n    tag_319:\n        /* \"#utility.yul\":17582:17621   */\n    tag_318:\n        /* \"#utility.yul\":17440:17628   */\n      swap3\n      swap2\n      pop\n      pop\n      jump\t// out\n\n    auxdata: 0xa26469706673582212204c00211b81696b5157a81d47b54c0eb6ce777d655fff82d599dcd1e91767460c64736f6c63430008190033\n}\n",
				"bytecode": {
					"linkReferences": {},
					"object": "6080604052348015600e575f80fd5b50335f806101000a81548173ffffffffffffffffffffffffffffffffffffffff021916908373ffffffffffffffffffffffffffffffffffffffff1602179055506111898061005b5f395ff3fe608060405234801561000f575f80fd5b506004361061003f575f3560e01c8063696d91b314610043578063704b6c021461005f578063f851a4401461007b575b5f80fd5b61005d60048036038101906100589190610942565b610099565b005b6100796004803603810190610074919061099f565b61042b565b005b610083610568565b60405161009091906109d9565b60405180910390f35b5f8054906101000a900473ffffffffffffffffffffffffffffffffffffffff1673ffffffffffffffffffffffffffffffffffffffff163373ffffffffffffffffffffffffffffffffffffffff1614610126576040517f08c379a000000000000000000000000000000000000000000000000000000000815260040161011d90610a72565b60405180910390fd5b5f5b838390508110156102cc575f84848381811061014757610146610a90565b5b9050604002015f01602081019061015e919061099f565b90505f85858481811061017457610173610a90565b5b9050604002016020013590505f73ffffffffffffffffffffffffffffffffffffffff168273ffffffffffffffffffffffffffffffffffffffff16036101ee576040517f08c379a00000000000000000000000000000000000000000000000000000000081526004016101e590610b07565b60405180910390fd5b5f8111610230576040517f08c379a000000000000000000000000000000000000000000000000000000000815260040161022790610b6f565b60405180910390fd5b5f61023a8361058b565b90507f205f2aa8b8e5c1833d51be8c38a914476253c19ae627270a65c00878a095afef838683856040516102719493929190610ba5565b60405180910390a1818110156102bc576040517f08c379a00000000000000000000000000000000000000000000000000000000081526004016102b390610c32565b60405180910390fd5b5050508080600101915050610128565b505f5b83839050811015610425575f8484838181106102ee576102ed610a90565b5b9050604002015f016020810190610305919061099f565b90505f85858481811061031b5761031a610a90565b5b9050604002016020013590505f8290505f8173ffffffffffffffffffffffffffffffffffffffff1663a9059cbb87856040518363ffffffff1660e01b8152600401610367929190610c50565b6020604051808303815f875af1158015610383573d5f803e3d5ffd5b505050506040513d601f19601f820116820180604052508101906103a79190610cac565b9050806103b386610701565b6040516020016103c39190610d99565b60405160208183030381529060405290610413576040517f08c379a000000000000000000000000000000000000000000000000000000000815260040161040a9190610e02565b60405180910390fd5b505050505080806001019150506102cf565b50505050565b5f8054906101000a900473ffffffffffffffffffffffffffffffffffffffff1673ffffffffffffffffffffffffffffffffffffffff163373ffffffffffffffffffffffffffffffffffffffff16146104b8576040517f08c379a00000000000000000000000000000000000000000000000000000000081526004016104af90610a72565b60405180910390fd5b5f73ffffffffffffffffffffffffffffffffffffffff168173ffffffffffffffffffffffffffffffffffffffff1603610526576040517f08c379a000000000000000000000000000000000000000000000000000000000815260040161051d90610e6c565b60405180910390fd5b805f806101000a81548173ffffffffffffffffffffffffffffffffffffffff021916908373ffffffffffffffffffffffffffffffffffffffff16021790555050565b5f8054906101000a900473ffffffffffffffffffffffffffffffffffffffff1681565b5f806040518060400160405280601281526020017f62616c616e63654f66286164647265737329000000000000000000000000000081525080519060200120306040516024016105db91906109d9565b604051602081830303815290604052907bffffffffffffffffffffffffffffffffffffffffffffffffffffffff19166020820180517bffffffffffffffffffffffffffffffffffffffffffffffffffffffff838183161783525050505090505f808473ffffffffffffffffffffffffffffffffffffffff16836040516106619190610ece565b5f60405180830381855afa9150503d805f8114610699576040519150601f19603f3d011682016040523d82523d5f602084013e61069e565b606091505b5091509150816106e3576040517f08c379a00000000000000000000000000000000000000000000000000000000081526004016106da90610f2e565b60405180910390fd5b808060200190518101906106f79190610f76565b9350505050919050565b60605f8203610747576040518060400160405280600181526020017f3000000000000000000000000000000000000000000000000000000000000000815250905061087a565b5f8290505f5b5f821461077657808061075f90610fce565b915050600a8261076f9190611042565b915061074d565b5f8167ffffffffffffffff81111561079157610790611072565b5b6040519080825280601f01601f1916602001820160405280156107c35781602001600182028036833780820191505090505b5090505f8290505b5f8614610872576001816107df919061109f565b90505f600a80886107f09190611042565b6107fa91906110d2565b87610805919061109f565b6030610811919061111f565b90505f8160f81b90508084848151811061082e5761082d610a90565b5b60200101907effffffffffffffffffffffffffffffffffffffffffffffffffffffffffffff191690815f1a905350600a886108699190611042565b975050506107cb565b819450505050505b919050565b5f80fd5b5f80fd5b5f80fd5b5f80fd5b5f80fd5b5f8083601f8401126108a8576108a7610887565b5b8235905067ffffffffffffffff8111156108c5576108c461088b565b5b6020830191508360408202830111156108e1576108e061088f565b5b9250929050565b5f73ffffffffffffffffffffffffffffffffffffffff82169050919050565b5f610911826108e8565b9050919050565b61092181610907565b811461092b575f80fd5b50565b5f8135905061093c81610918565b92915050565b5f805f604084860312156109595761095861087f565b5b5f84013567ffffffffffffffff81111561097657610975610883565b5b61098286828701610893565b935093505060206109958682870161092e565b9150509250925092565b5f602082840312156109b4576109b361087f565b5b5f6109c18482850161092e565b91505092915050565b6109d381610907565b82525050565b5f6020820190506109ec5f8301846109ca565b92915050565b5f82825260208201905092915050565b7f4f6e6c792061646d696e2063616e2063616c6c20746869732066756e6374696f5f8201527f6e2e000000000000000000000000000000000000000000000000000000000000602082015250565b5f610a5c6022836109f2565b9150610a6782610a02565b604082019050919050565b5f6020820190508181035f830152610a8981610a50565b9050919050565b7f4e487b71000000000000000000000000000000000000000000000000000000005f52603260045260245ffd5b7f496e76616c696420746f6b656e20616464726573732e000000000000000000005f82015250565b5f610af16016836109f2565b9150610afc82610abd565b602082019050919050565b5f6020820190508181035f830152610b1e81610ae5565b9050919050565b7f496e76616c696420616d6f756e742e00000000000000000000000000000000005f82015250565b5f610b59600f836109f2565b9150610b6482610b25565b602082019050919050565b5f6020820190508181035f830152610b8681610b4d565b9050919050565b5f819050919050565b610b9f81610b8d565b82525050565b5f608082019050610bb85f8301876109ca565b610bc560208301866109ca565b610bd26040830185610b96565b610bdf6060830184610b96565b95945050505050565b7f496e73756666696369656e742062616c616e63652e00000000000000000000005f82015250565b5f610c1c6015836109f2565b9150610c2782610be8565b602082019050919050565b5f6020820190508181035f830152610c4981610c10565b9050919050565b5f604082019050610c635f8301856109ca565b610c706020830184610b96565b9392505050565b5f8115159050919050565b610c8b81610c77565b8114610c95575f80fd5b50565b5f81519050610ca681610c82565b92915050565b5f60208284031215610cc157610cc061087f565b5b5f610cce84828501610c98565b91505092915050565b5f81905092915050565b7f546f6b656e207472616e73666572206661696c656420666f7220746f6b656e205f8201527f696e646578200000000000000000000000000000000000000000000000000000602082015250565b5f610d3b602683610cd7565b9150610d4682610ce1565b602682019050919050565b5f81519050919050565b8281835e5f83830152505050565b5f610d7382610d51565b610d7d8185610cd7565b9350610d8d818560208601610d5b565b80840191505092915050565b5f610da382610d2f565b9150610daf8284610d69565b915081905092915050565b5f601f19601f8301169050919050565b5f610dd482610d51565b610dde81856109f2565b9350610dee818560208601610d5b565b610df781610dba565b840191505092915050565b5f6020820190508181035f830152610e1a8184610dca565b905092915050565b7f496e76616c6964206164647265737320666f722061646d696e2e0000000000005f82015250565b5f610e56601a836109f2565b9150610e6182610e22565b602082019050919050565b5f6020820190508181035f830152610e8381610e4a565b9050919050565b5f81519050919050565b5f81905092915050565b5f610ea882610e8a565b610eb28185610e94565b9350610ec2818560208601610d5b565b80840191505092915050565b5f610ed98284610e9e565b915081905092915050565b7f45787465726e616c2063616c6c206661696c65640000000000000000000000005f82015250565b5f610f186014836109f2565b9150610f2382610ee4565b602082019050919050565b5f6020820190508181035f830152610f4581610f0c565b9050919050565b610f5581610b8d565b8114610f5f575f80fd5b50565b5f81519050610f7081610f4c565b92915050565b5f60208284031215610f8b57610f8a61087f565b5b5f610f9884828501610f62565b91505092915050565b7f4e487b71000000000000000000000000000000000000000000000000000000005f52601160045260245ffd5b5f610fd882610b8d565b91507fffffffffffffffffffffffffffffffffffffffffffffffffffffffffffffffff820361100a57611009610fa1565b5b600182019050919050565b7f4e487b71000000000000000000000000000000000000000000000000000000005f52601260045260245ffd5b5f61104c82610b8d565b915061105783610b8d565b92508261106757611066611015565b5b828204905092915050565b7f4e487b71000000000000000000000000000000000000000000000000000000005f52604160045260245ffd5b5f6110a982610b8d565b91506110b483610b8d565b92508282039050818111156110cc576110cb610fa1565b5b92915050565b5f6110dc82610b8d565b91506110e783610b8d565b92508282026110f581610b8d565b9150828204841483151761110c5761110b610fa1565b5b5092915050565b5f60ff82169050919050565b5f61112982611113565b915061113483611113565b9250828201905060ff81111561114d5761114c610fa1565b5b9291505056fea26469706673582212204c00211b81696b5157a81d47b54c0eb6ce777d655fff82d599dcd1e91767460c64736f6c63430008190033",
					"opcodes": "PUSH1 0x80 PUSH1 0x40 MSTORE CALLVALUE DUP1 ISZERO PUSH1 0xE JUMPI PUSH0 DUP1 REVERT JUMPDEST POP CALLER PUSH0 DUP1 PUSH2 0x100 EXP DUP2 SLOAD DUP2 PUSH20 0xFFFFFFFFFFFFFFFFFFFFFFFFFFFFFFFFFFFFFFFF MUL NOT AND SWAP1 DUP4 PUSH20 0xFFFFFFFFFFFFFFFFFFFFFFFFFFFFFFFFFFFFFFFF AND MUL OR SWAP1 SSTORE POP PUSH2 0x1189 DUP1 PUSH2 0x5B PUSH0 CODECOPY PUSH0 RETURN INVALID PUSH1 0x80 PUSH1 0x40 MSTORE CALLVALUE DUP1 ISZERO PUSH2 0xF JUMPI PUSH0 DUP1 REVERT JUMPDEST POP PUSH1 0x4 CALLDATASIZE LT PUSH2 0x3F JUMPI PUSH0 CALLDATALOAD PUSH1 0xE0 SHR DUP1 PUSH4 0x696D91B3 EQ PUSH2 0x43 JUMPI DUP1 PUSH4 0x704B6C02 EQ PUSH2 0x5F JUMPI DUP1 PUSH4 0xF851A440 EQ PUSH2 0x7B JUMPI JUMPDEST PUSH0 DUP1 REVERT JUMPDEST PUSH2 0x5D PUSH1 0x4 DUP1 CALLDATASIZE SUB DUP2 ADD SWAP1 PUSH2 0x58 SWAP2 SWAP1 PUSH2 0x942 JUMP JUMPDEST PUSH2 0x99 JUMP JUMPDEST STOP JUMPDEST PUSH2 0x79 PUSH1 0x4 DUP1 CALLDATASIZE SUB DUP2 ADD SWAP1 PUSH2 0x74 SWAP2 SWAP1 PUSH2 0x99F JUMP JUMPDEST PUSH2 0x42B JUMP JUMPDEST STOP JUMPDEST PUSH2 0x83 PUSH2 0x568 JUMP JUMPDEST PUSH1 0x40 MLOAD PUSH2 0x90 SWAP2 SWAP1 PUSH2 0x9D9 JUMP JUMPDEST PUSH1 0x40 MLOAD DUP1 SWAP2 SUB SWAP1 RETURN JUMPDEST PUSH0 DUP1 SLOAD SWAP1 PUSH2 0x100 EXP SWAP1 DIV PUSH20 0xFFFFFFFFFFFFFFFFFFFFFFFFFFFFFFFFFFFFFFFF AND PUSH20 0xFFFFFFFFFFFFFFFFFFFFFFFFFFFFFFFFFFFFFFFF AND CALLER PUSH20 0xFFFFFFFFFFFFFFFFFFFFFFFFFFFFFFFFFFFFFFFF AND EQ PUSH2 0x126 JUMPI PUSH1 0x40 MLOAD PUSH32 0x8C379A000000000000000000000000000000000000000000000000000000000 DUP2 MSTORE PUSH1 0x4 ADD PUSH2 0x11D SWAP1 PUSH2 0xA72 JUMP JUMPDEST PUSH1 0x40 MLOAD DUP1 SWAP2 SUB SWAP1 REVERT JUMPDEST PUSH0 JUMPDEST DUP4 DUP4 SWAP1 POP DUP2 LT ISZERO PUSH2 0x2CC JUMPI PUSH0 DUP5 DUP5 DUP4 DUP2 DUP2 LT PUSH2 0x147 JUMPI PUSH2 0x146 PUSH2 0xA90 JUMP JUMPDEST JUMPDEST SWAP1 POP PUSH1 0x40 MUL ADD PUSH0 ADD PUSH1 0x20 DUP2 ADD SWAP1 PUSH2 0x15E SWAP2 SWAP1 PUSH2 0x99F JUMP JUMPDEST SWAP1 POP PUSH0 DUP6 DUP6 DUP5 DUP2 DUP2 LT PUSH2 0x174 JUMPI PUSH2 0x173 PUSH2 0xA90 JUMP JUMPDEST JUMPDEST SWAP1 POP PUSH1 0x40 MUL ADD PUSH1 0x20 ADD CALLDATALOAD SWAP1 POP PUSH0 PUSH20 0xFFFFFFFFFFFFFFFFFFFFFFFFFFFFFFFFFFFFFFFF AND DUP3 PUSH20 0xFFFFFFFFFFFFFFFFFFFFFFFFFFFFFFFFFFFFFFFF AND SUB PUSH2 0x1EE JUMPI PUSH1 0x40 MLOAD PUSH32 0x8C379A000000000000000000000000000000000000000000000000000000000 DUP2 MSTORE PUSH1 0x4 ADD PUSH2 0x1E5 SWAP1 PUSH2 0xB07 JUMP JUMPDEST PUSH1 0x40 MLOAD DUP1 SWAP2 SUB SWAP1 REVERT JUMPDEST PUSH0 DUP2 GT PUSH2 0x230 JUMPI PUSH1 0x40 MLOAD PUSH32 0x8C379A000000000000000000000000000000000000000000000000000000000 DUP2 MSTORE PUSH1 0x4 ADD PUSH2 0x227 SWAP1 PUSH2 0xB6F JUMP JUMPDEST PUSH1 0x40 MLOAD DUP1 SWAP2 SUB SWAP1 REVERT JUMPDEST PUSH0 PUSH2 0x23A DUP4 PUSH2 0x58B JUMP JUMPDEST SWAP1 POP PUSH32 0x205F2AA8B8E5C1833D51BE8C38A914476253C19AE627270A65C00878A095AFEF DUP4 DUP7 DUP4 DUP6 PUSH1 0x40 MLOAD PUSH2 0x271 SWAP5 SWAP4 SWAP3 SWAP2 SWAP1 PUSH2 0xBA5 JUMP JUMPDEST PUSH1 0x40 MLOAD DUP1 SWAP2 SUB SWAP1 LOG1 DUP2 DUP2 LT ISZERO PUSH2 0x2BC JUMPI PUSH1 0x40 MLOAD PUSH32 0x8C379A000000000000000000000000000000000000000000000000000000000 DUP2 MSTORE PUSH1 0x4 ADD PUSH2 0x2B3 SWAP1 PUSH2 0xC32 JUMP JUMPDEST PUSH1 0x40 MLOAD DUP1 SWAP2 SUB SWAP1 REVERT JUMPDEST POP POP POP DUP1 DUP1 PUSH1 0x1 ADD SWAP2 POP POP PUSH2 0x128 JUMP JUMPDEST POP PUSH0 JUMPDEST DUP4 DUP4 SWAP1 POP DUP2 LT ISZERO PUSH2 0x425 JUMPI PUSH0 DUP5 DUP5 DUP4 DUP2 DUP2 LT PUSH2 0x2EE JUMPI PUSH2 0x2ED PUSH2 0xA90 JUMP JUMPDEST JUMPDEST SWAP1 POP PUSH1 0x40 MUL ADD PUSH0 ADD PUSH1 0x20 DUP2 ADD SWAP1 PUSH2 0x305 SWAP2 SWAP1 PUSH2 0x99F JUMP JUMPDEST SWAP1 POP PUSH0 DUP6 DUP6 DUP5 DUP2 DUP2 LT PUSH2 0x31B JUMPI PUSH2 0x31A PUSH2 0xA90 JUMP JUMPDEST JUMPDEST SWAP1 POP PUSH1 0x40 MUL ADD PUSH1 0x20 ADD CALLDATALOAD SWAP1 POP PUSH0 DUP3 SWAP1 POP PUSH0 DUP2 PUSH20 0xFFFFFFFFFFFFFFFFFFFFFFFFFFFFFFFFFFFFFFFF AND PUSH4 0xA9059CBB DUP8 DUP6 PUSH1 0x40 MLOAD DUP4 PUSH4 0xFFFFFFFF AND PUSH1 0xE0 SHL DUP2 MSTORE PUSH1 0x4 ADD PUSH2 0x367 SWAP3 SWAP2 SWAP1 PUSH2 0xC50 JUMP JUMPDEST PUSH1 0x20 PUSH1 0x40 MLOAD DUP1 DUP4 SUB DUP2 PUSH0 DUP8 GAS CALL ISZERO DUP1 ISZERO PUSH2 0x383 JUMPI RETURNDATASIZE PUSH0 DUP1 RETURNDATACOPY RETURNDATASIZE PUSH0 REVERT JUMPDEST POP POP POP POP PUSH1 0x40 MLOAD RETURNDATASIZE PUSH1 0x1F NOT PUSH1 0x1F DUP3 ADD AND DUP3 ADD DUP1 PUSH1 0x40 MSTORE POP DUP2 ADD SWAP1 PUSH2 0x3A7 SWAP2 SWAP1 PUSH2 0xCAC JUMP JUMPDEST SWAP1 POP DUP1 PUSH2 0x3B3 DUP7 PUSH2 0x701 JUMP JUMPDEST PUSH1 0x40 MLOAD PUSH1 0x20 ADD PUSH2 0x3C3 SWAP2 SWAP1 PUSH2 0xD99 JUMP JUMPDEST PUSH1 0x40 MLOAD PUSH1 0x20 DUP2 DUP4 SUB SUB DUP2 MSTORE SWAP1 PUSH1 0x40 MSTORE SWAP1 PUSH2 0x413 JUMPI PUSH1 0x40 MLOAD PUSH32 0x8C379A000000000000000000000000000000000000000000000000000000000 DUP2 MSTORE PUSH1 0x4 ADD PUSH2 0x40A SWAP2 SWAP1 PUSH2 0xE02 JUMP JUMPDEST PUSH1 0x40 MLOAD DUP1 SWAP2 SUB SWAP1 REVERT JUMPDEST POP POP POP POP POP DUP1 DUP1 PUSH1 0x1 ADD SWAP2 POP POP PUSH2 0x2CF JUMP JUMPDEST POP POP POP POP JUMP JUMPDEST PUSH0 DUP1 SLOAD SWAP1 PUSH2 0x100 EXP SWAP1 DIV PUSH20 0xFFFFFFFFFFFFFFFFFFFFFFFFFFFFFFFFFFFFFFFF AND PUSH20 0xFFFFFFFFFFFFFFFFFFFFFFFFFFFFFFFFFFFFFFFF AND CALLER PUSH20 0xFFFFFFFFFFFFFFFFFFFFFFFFFFFFFFFFFFFFFFFF AND EQ PUSH2 0x4B8 JUMPI PUSH1 0x40 MLOAD PUSH32 0x8C379A000000000000000000000000000000000000000000000000000000000 DUP2 MSTORE PUSH1 0x4 ADD PUSH2 0x4AF SWAP1 PUSH2 0xA72 JUMP JUMPDEST PUSH1 0x40 MLOAD DUP1 SWAP2 SUB SWAP1 REVERT JUMPDEST PUSH0 PUSH20 0xFFFFFFFFFFFFFFFFFFFFFFFFFFFFFFFFFFFFFFFF AND DUP2 PUSH20 0xFFFFFFFFFFFFFFFFFFFFFFFFFFFFFFFFFFFFFFFF AND SUB PUSH2 0x526 JUMPI PUSH1 0x40 MLOAD PUSH32 0x8C379A000000000000000000000000000000000000000000000000000000000 DUP2 MSTORE PUSH1 0x4 ADD PUSH2 0x51D SWAP1 PUSH2 0xE6C JUMP JUMPDEST PUSH1 0x40 MLOAD DUP1 SWAP2 SUB SWAP1 REVERT JUMPDEST DUP1 PUSH0 DUP1 PUSH2 0x100 EXP DUP2 SLOAD DUP2 PUSH20 0xFFFFFFFFFFFFFFFFFFFFFFFFFFFFFFFFFFFFFFFF MUL NOT AND SWAP1 DUP4 PUSH20 0xFFFFFFFFFFFFFFFFFFFFFFFFFFFFFFFFFFFFFFFF AND MUL OR SWAP1 SSTORE POP POP JUMP JUMPDEST PUSH0 DUP1 SLOAD SWAP1 PUSH2 0x100 EXP SWAP1 DIV PUSH20 0xFFFFFFFFFFFFFFFFFFFFFFFFFFFFFFFFFFFFFFFF AND DUP2 JUMP JUMPDEST PUSH0 DUP1 PUSH1 0x40 MLOAD DUP1 PUSH1 0x40 ADD PUSH1 0x40 MSTORE DUP1 PUSH1 0x12 DUP2 MSTORE PUSH1 0x20 ADD PUSH32 0x62616C616E63654F662861646472657373290000000000000000000000000000 DUP2 MSTORE POP DUP1 MLOAD SWAP1 PUSH1 0x20 ADD KECCAK256 ADDRESS PUSH1 0x40 MLOAD PUSH1 0x24 ADD PUSH2 0x5DB SWAP2 SWAP1 PUSH2 0x9D9 JUMP JUMPDEST PUSH1 0x40 MLOAD PUSH1 0x20 DUP2 DUP4 SUB SUB DUP2 MSTORE SWAP1 PUSH1 0x40 MSTORE SWAP1 PUSH28 0xFFFFFFFFFFFFFFFFFFFFFFFFFFFFFFFFFFFFFFFFFFFFFFFFFFFFFFFF NOT AND PUSH1 0x20 DUP3 ADD DUP1 MLOAD PUSH28 0xFFFFFFFFFFFFFFFFFFFFFFFFFFFFFFFFFFFFFFFFFFFFFFFFFFFFFFFF DUP4 DUP2 DUP4 AND OR DUP4 MSTORE POP POP POP POP SWAP1 POP PUSH0 DUP1 DUP5 PUSH20 0xFFFFFFFFFFFFFFFFFFFFFFFFFFFFFFFFFFFFFFFF AND DUP4 PUSH1 0x40 MLOAD PUSH2 0x661 SWAP2 SWAP1 PUSH2 0xECE JUMP JUMPDEST PUSH0 PUSH1 0x40 MLOAD DUP1 DUP4 SUB DUP2 DUP6 GAS STATICCALL SWAP2 POP POP RETURNDATASIZE DUP1 PUSH0 DUP2 EQ PUSH2 0x699 JUMPI PUSH1 0x40 MLOAD SWAP2 POP PUSH1 0x1F NOT PUSH1 0x3F RETURNDATASIZE ADD AND DUP3 ADD PUSH1 0x40 MSTORE RETURNDATASIZE DUP3 MSTORE RETURNDATASIZE PUSH0 PUSH1 0x20 DUP5 ADD RETURNDATACOPY PUSH2 0x69E JUMP JUMPDEST PUSH1 0x60 SWAP2 POP JUMPDEST POP SWAP2 POP SWAP2 POP DUP2 PUSH2 0x6E3 JUMPI PUSH1 0x40 MLOAD PUSH32 0x8C379A000000000000000000000000000000000000000000000000000000000 DUP2 MSTORE PUSH1 0x4 ADD PUSH2 0x6DA SWAP1 PUSH2 0xF2E JUMP JUMPDEST PUSH1 0x40 MLOAD DUP1 SWAP2 SUB SWAP1 REVERT JUMPDEST DUP1 DUP1 PUSH1 0x20 ADD SWAP1 MLOAD DUP2 ADD SWAP1 PUSH2 0x6F7 SWAP2 SWAP1 PUSH2 0xF76 JUMP JUMPDEST SWAP4 POP POP POP POP SWAP2 SWAP1 POP JUMP JUMPDEST PUSH1 0x60 PUSH0 DUP3 SUB PUSH2 0x747 JUMPI PUSH1 0x40 MLOAD DUP1 PUSH1 0x40 ADD PUSH1 0x40 MSTORE DUP1 PUSH1 0x1 DUP2 MSTORE PUSH1 0x20 ADD PUSH32 0x3000000000000000000000000000000000000000000000000000000000000000 DUP2 MSTORE POP SWAP1 POP PUSH2 0x87A JUMP JUMPDEST PUSH0 DUP3 SWAP1 POP PUSH0 JUMPDEST PUSH0 DUP3 EQ PUSH2 0x776 JUMPI DUP1 DUP1 PUSH2 0x75F SWAP1 PUSH2 0xFCE JUMP JUMPDEST SWAP2 POP POP PUSH1 0xA DUP3 PUSH2 0x76F SWAP2 SWAP1 PUSH2 0x1042 JUMP JUMPDEST SWAP2 POP PUSH2 0x74D JUMP JUMPDEST PUSH0 DUP2 PUSH8 0xFFFFFFFFFFFFFFFF DUP2 GT ISZERO PUSH2 0x791 JUMPI PUSH2 0x790 PUSH2 0x1072 JUMP JUMPDEST JUMPDEST PUSH1 0x40 MLOAD SWAP1 DUP1 DUP3 MSTORE DUP1 PUSH1 0x1F ADD PUSH1 0x1F NOT AND PUSH1 0x20 ADD DUP3 ADD PUSH1 0x40 MSTORE DUP1 ISZERO PUSH2 0x7C3 JUMPI DUP2 PUSH1 0x20 ADD PUSH1 0x1 DUP3 MUL DUP1 CALLDATASIZE DUP4 CALLDATACOPY DUP1 DUP3 ADD SWAP2 POP POP SWAP1 POP JUMPDEST POP SWAP1 POP PUSH0 DUP3 SWAP1 POP JUMPDEST PUSH0 DUP7 EQ PUSH2 0x872 JUMPI PUSH1 0x1 DUP2 PUSH2 0x7DF SWAP2 SWAP1 PUSH2 0x109F JUMP JUMPDEST SWAP1 POP PUSH0 PUSH1 0xA DUP1 DUP9 PUSH2 0x7F0 SWAP2 SWAP1 PUSH2 0x1042 JUMP JUMPDEST PUSH2 0x7FA SWAP2 SWAP1 PUSH2 0x10D2 JUMP JUMPDEST DUP8 PUSH2 0x805 SWAP2 SWAP1 PUSH2 0x109F JUMP JUMPDEST PUSH1 0x30 PUSH2 0x811 SWAP2 SWAP1 PUSH2 0x111F JUMP JUMPDEST SWAP1 POP PUSH0 DUP2 PUSH1 0xF8 SHL SWAP1 POP DUP1 DUP5 DUP5 DUP2 MLOAD DUP2 LT PUSH2 0x82E JUMPI PUSH2 0x82D PUSH2 0xA90 JUMP JUMPDEST JUMPDEST PUSH1 0x20 ADD ADD SWAP1 PUSH31 0xFFFFFFFFFFFFFFFFFFFFFFFFFFFFFFFFFFFFFFFFFFFFFFFFFFFFFFFFFFFFFF NOT AND SWAP1 DUP2 PUSH0 BYTE SWAP1 MSTORE8 POP PUSH1 0xA DUP9 PUSH2 0x869 SWAP2 SWAP1 PUSH2 0x1042 JUMP JUMPDEST SWAP8 POP POP POP PUSH2 0x7CB JUMP JUMPDEST DUP2 SWAP5 POP POP POP POP POP JUMPDEST SWAP2 SWAP1 POP JUMP JUMPDEST PUSH0 DUP1 REVERT JUMPDEST PUSH0 DUP1 REVERT JUMPDEST PUSH0 DUP1 REVERT JUMPDEST PUSH0 DUP1 REVERT JUMPDEST PUSH0 DUP1 REVERT JUMPDEST PUSH0 DUP1 DUP4 PUSH1 0x1F DUP5 ADD SLT PUSH2 0x8A8 JUMPI PUSH2 0x8A7 PUSH2 0x887 JUMP JUMPDEST JUMPDEST DUP3 CALLDATALOAD SWAP1 POP PUSH8 0xFFFFFFFFFFFFFFFF DUP2 GT ISZERO PUSH2 0x8C5 JUMPI PUSH2 0x8C4 PUSH2 0x88B JUMP JUMPDEST JUMPDEST PUSH1 0x20 DUP4 ADD SWAP2 POP DUP4 PUSH1 0x40 DUP3 MUL DUP4 ADD GT ISZERO PUSH2 0x8E1 JUMPI PUSH2 0x8E0 PUSH2 0x88F JUMP JUMPDEST JUMPDEST SWAP3 POP SWAP3 SWAP1 POP JUMP JUMPDEST PUSH0 PUSH20 0xFFFFFFFFFFFFFFFFFFFFFFFFFFFFFFFFFFFFFFFF DUP3 AND SWAP1 POP SWAP2 SWAP1 POP JUMP JUMPDEST PUSH0 PUSH2 0x911 DUP3 PUSH2 0x8E8 JUMP JUMPDEST SWAP1 POP SWAP2 SWAP1 POP JUMP JUMPDEST PUSH2 0x921 DUP2 PUSH2 0x907 JUMP JUMPDEST DUP2 EQ PUSH2 0x92B JUMPI PUSH0 DUP1 REVERT JUMPDEST POP JUMP JUMPDEST PUSH0 DUP2 CALLDATALOAD SWAP1 POP PUSH2 0x93C DUP2 PUSH2 0x918 JUMP JUMPDEST SWAP3 SWAP2 POP POP JUMP JUMPDEST PUSH0 DUP1 PUSH0 PUSH1 0x40 DUP5 DUP7 SUB SLT ISZERO PUSH2 0x959 JUMPI PUSH2 0x958 PUSH2 0x87F JUMP JUMPDEST JUMPDEST PUSH0 DUP5 ADD CALLDATALOAD PUSH8 0xFFFFFFFFFFFFFFFF DUP2 GT ISZERO PUSH2 0x976 JUMPI PUSH2 0x975 PUSH2 0x883 JUMP JUMPDEST JUMPDEST PUSH2 0x982 DUP7 DUP3 DUP8 ADD PUSH2 0x893 JUMP JUMPDEST SWAP4 POP SWAP4 POP POP PUSH1 0x20 PUSH2 0x995 DUP7 DUP3 DUP8 ADD PUSH2 0x92E JUMP JUMPDEST SWAP2 POP POP SWAP3 POP SWAP3 POP SWAP3 JUMP JUMPDEST PUSH0 PUSH1 0x20 DUP3 DUP5 SUB SLT ISZERO PUSH2 0x9B4 JUMPI PUSH2 0x9B3 PUSH2 0x87F JUMP JUMPDEST JUMPDEST PUSH0 PUSH2 0x9C1 DUP5 DUP3 DUP6 ADD PUSH2 0x92E JUMP JUMPDEST SWAP2 POP POP SWAP3 SWAP2 POP POP JUMP JUMPDEST PUSH2 0x9D3 DUP2 PUSH2 0x907 JUMP JUMPDEST DUP3 MSTORE POP POP JUMP JUMPDEST PUSH0 PUSH1 0x20 DUP3 ADD SWAP1 POP PUSH2 0x9EC PUSH0 DUP4 ADD DUP5 PUSH2 0x9CA JUMP JUMPDEST SWAP3 SWAP2 POP POP JUMP JUMPDEST PUSH0 DUP3 DUP3 MSTORE PUSH1 0x20 DUP3 ADD SWAP1 POP SWAP3 SWAP2 POP POP JUMP JUMPDEST PUSH32 0x4F6E6C792061646D696E2063616E2063616C6C20746869732066756E6374696F PUSH0 DUP3 ADD MSTORE PUSH32 0x6E2E000000000000000000000000000000000000000000000000000000000000 PUSH1 0x20 DUP3 ADD MSTORE POP JUMP JUMPDEST PUSH0 PUSH2 0xA5C PUSH1 0x22 DUP4 PUSH2 0x9F2 JUMP JUMPDEST SWAP2 POP PUSH2 0xA67 DUP3 PUSH2 0xA02 JUMP JUMPDEST PUSH1 0x40 DUP3 ADD SWAP1 POP SWAP2 SWAP1 POP JUMP JUMPDEST PUSH0 PUSH1 0x20 DUP3 ADD SWAP1 POP DUP2 DUP2 SUB PUSH0 DUP4 ADD MSTORE PUSH2 0xA89 DUP2 PUSH2 0xA50 JUMP JUMPDEST SWAP1 POP SWAP2 SWAP1 POP JUMP JUMPDEST PUSH32 0x4E487B7100000000000000000000000000000000000000000000000000000000 PUSH0 MSTORE PUSH1 0x32 PUSH1 0x4 MSTORE PUSH1 0x24 PUSH0 REVERT JUMPDEST PUSH32 0x496E76616C696420746F6B656E20616464726573732E00000000000000000000 PUSH0 DUP3 ADD MSTORE POP JUMP JUMPDEST PUSH0 PUSH2 0xAF1 PUSH1 0x16 DUP4 PUSH2 0x9F2 JUMP JUMPDEST SWAP2 POP PUSH2 0xAFC DUP3 PUSH2 0xABD JUMP JUMPDEST PUSH1 0x20 DUP3 ADD SWAP1 POP SWAP2 SWAP1 POP JUMP JUMPDEST PUSH0 PUSH1 0x20 DUP3 ADD SWAP1 POP DUP2 DUP2 SUB PUSH0 DUP4 ADD MSTORE PUSH2 0xB1E DUP2 PUSH2 0xAE5 JUMP JUMPDEST SWAP1 POP SWAP2 SWAP1 POP JUMP JUMPDEST PUSH32 0x496E76616C696420616D6F756E742E0000000000000000000000000000000000 PUSH0 DUP3 ADD MSTORE POP JUMP JUMPDEST PUSH0 PUSH2 0xB59 PUSH1 0xF DUP4 PUSH2 0x9F2 JUMP JUMPDEST SWAP2 POP PUSH2 0xB64 DUP3 PUSH2 0xB25 JUMP JUMPDEST PUSH1 0x20 DUP3 ADD SWAP1 POP SWAP2 SWAP1 POP JUMP JUMPDEST PUSH0 PUSH1 0x20 DUP3 ADD SWAP1 POP DUP2 DUP2 SUB PUSH0 DUP4 ADD MSTORE PUSH2 0xB86 DUP2 PUSH2 0xB4D JUMP JUMPDEST SWAP1 POP SWAP2 SWAP1 POP JUMP JUMPDEST PUSH0 DUP2 SWAP1 POP SWAP2 SWAP1 POP JUMP JUMPDEST PUSH2 0xB9F DUP2 PUSH2 0xB8D JUMP JUMPDEST DUP3 MSTORE POP POP JUMP JUMPDEST PUSH0 PUSH1 0x80 DUP3 ADD SWAP1 POP PUSH2 0xBB8 PUSH0 DUP4 ADD DUP8 PUSH2 0x9CA JUMP JUMPDEST PUSH2 0xBC5 PUSH1 0x20 DUP4 ADD DUP7 PUSH2 0x9CA JUMP JUMPDEST PUSH2 0xBD2 PUSH1 0x40 DUP4 ADD DUP6 PUSH2 0xB96 JUMP JUMPDEST PUSH2 0xBDF PUSH1 0x60 DUP4 ADD DUP5 PUSH2 0xB96 JUMP JUMPDEST SWAP6 SWAP5 POP POP POP POP POP JUMP JUMPDEST PUSH32 0x496E73756666696369656E742062616C616E63652E0000000000000000000000 PUSH0 DUP3 ADD MSTORE POP JUMP JUMPDEST PUSH0 PUSH2 0xC1C PUSH1 0x15 DUP4 PUSH2 0x9F2 JUMP JUMPDEST SWAP2 POP PUSH2 0xC27 DUP3 PUSH2 0xBE8 JUMP JUMPDEST PUSH1 0x20 DUP3 ADD SWAP1 POP SWAP2 SWAP1 POP JUMP JUMPDEST PUSH0 PUSH1 0x20 DUP3 ADD SWAP1 POP DUP2 DUP2 SUB PUSH0 DUP4 ADD MSTORE PUSH2 0xC49 DUP2 PUSH2 0xC10 JUMP JUMPDEST SWAP1 POP SWAP2 SWAP1 POP JUMP JUMPDEST PUSH0 PUSH1 0x40 DUP3 ADD SWAP1 POP PUSH2 0xC63 PUSH0 DUP4 ADD DUP6 PUSH2 0x9CA JUMP JUMPDEST PUSH2 0xC70 PUSH1 0x20 DUP4 ADD DUP5 PUSH2 0xB96 JUMP JUMPDEST SWAP4 SWAP3 POP POP POP JUMP JUMPDEST PUSH0 DUP2 ISZERO ISZERO SWAP1 POP SWAP2 SWAP1 POP JUMP JUMPDEST PUSH2 0xC8B DUP2 PUSH2 0xC77 JUMP JUMPDEST DUP2 EQ PUSH2 0xC95 JUMPI PUSH0 DUP1 REVERT JUMPDEST POP JUMP JUMPDEST PUSH0 DUP2 MLOAD SWAP1 POP PUSH2 0xCA6 DUP2 PUSH2 0xC82 JUMP JUMPDEST SWAP3 SWAP2 POP POP JUMP JUMPDEST PUSH0 PUSH1 0x20 DUP3 DUP5 SUB SLT ISZERO PUSH2 0xCC1 JUMPI PUSH2 0xCC0 PUSH2 0x87F JUMP JUMPDEST JUMPDEST PUSH0 PUSH2 0xCCE DUP5 DUP3 DUP6 ADD PUSH2 0xC98 JUMP JUMPDEST SWAP2 POP POP SWAP3 SWAP2 POP POP JUMP JUMPDEST PUSH0 DUP2 SWAP1 POP SWAP3 SWAP2 POP POP JUMP JUMPDEST PUSH32 0x546F6B656E207472616E73666572206661696C656420666F7220746F6B656E20 PUSH0 DUP3 ADD MSTORE PUSH32 0x696E646578200000000000000000000000000000000000000000000000000000 PUSH1 0x20 DUP3 ADD MSTORE POP JUMP JUMPDEST PUSH0 PUSH2 0xD3B PUSH1 0x26 DUP4 PUSH2 0xCD7 JUMP JUMPDEST SWAP2 POP PUSH2 0xD46 DUP3 PUSH2 0xCE1 JUMP JUMPDEST PUSH1 0x26 DUP3 ADD SWAP1 POP SWAP2 SWAP1 POP JUMP JUMPDEST PUSH0 DUP2 MLOAD SWAP1 POP SWAP2 SWAP1 POP JUMP JUMPDEST DUP3 DUP2 DUP4 MCOPY PUSH0 DUP4 DUP4 ADD MSTORE POP POP POP JUMP JUMPDEST PUSH0 PUSH2 0xD73 DUP3 PUSH2 0xD51 JUMP JUMPDEST PUSH2 0xD7D DUP2 DUP6 PUSH2 0xCD7 JUMP JUMPDEST SWAP4 POP PUSH2 0xD8D DUP2 DUP6 PUSH1 0x20 DUP7 ADD PUSH2 0xD5B JUMP JUMPDEST DUP1 DUP5 ADD SWAP2 POP POP SWAP3 SWAP2 POP POP JUMP JUMPDEST PUSH0 PUSH2 0xDA3 DUP3 PUSH2 0xD2F JUMP JUMPDEST SWAP2 POP PUSH2 0xDAF DUP3 DUP5 PUSH2 0xD69 JUMP JUMPDEST SWAP2 POP DUP2 SWAP1 POP SWAP3 SWAP2 POP POP JUMP JUMPDEST PUSH0 PUSH1 0x1F NOT PUSH1 0x1F DUP4 ADD AND SWAP1 POP SWAP2 SWAP1 POP JUMP JUMPDEST PUSH0 PUSH2 0xDD4 DUP3 PUSH2 0xD51 JUMP JUMPDEST PUSH2 0xDDE DUP2 DUP6 PUSH2 0x9F2 JUMP JUMPDEST SWAP4 POP PUSH2 0xDEE DUP2 DUP6 PUSH1 0x20 DUP7 ADD PUSH2 0xD5B JUMP JUMPDEST PUSH2 0xDF7 DUP2 PUSH2 0xDBA JUMP JUMPDEST DUP5 ADD SWAP2 POP POP SWAP3 SWAP2 POP POP JUMP JUMPDEST PUSH0 PUSH1 0x20 DUP3 ADD SWAP1 POP DUP2 DUP2 SUB PUSH0 DUP4 ADD MSTORE PUSH2 0xE1A DUP2 DUP5 PUSH2 0xDCA JUMP JUMPDEST SWAP1 POP SWAP3 SWAP2 POP POP JUMP JUMPDEST PUSH32 0x496E76616C6964206164647265737320666F722061646D696E2E000000000000 PUSH0 DUP3 ADD MSTORE POP JUMP JUMPDEST PUSH0 PUSH2 0xE56 PUSH1 0x1A DUP4 PUSH2 0x9F2 JUMP JUMPDEST SWAP2 POP PUSH2 0xE61 DUP3 PUSH2 0xE22 JUMP JUMPDEST PUSH1 0x20 DUP3 ADD SWAP1 POP SWAP2 SWAP1 POP JUMP JUMPDEST PUSH0 PUSH1 0x20 DUP3 ADD SWAP1 POP DUP2 DUP2 SUB PUSH0 DUP4 ADD MSTORE PUSH2 0xE83 DUP2 PUSH2 0xE4A JUMP JUMPDEST SWAP1 POP SWAP2 SWAP1 POP JUMP JUMPDEST PUSH0 DUP2 MLOAD SWAP1 POP SWAP2 SWAP1 POP JUMP JUMPDEST PUSH0 DUP2 SWAP1 POP SWAP3 SWAP2 POP POP JUMP JUMPDEST PUSH0 PUSH2 0xEA8 DUP3 PUSH2 0xE8A JUMP JUMPDEST PUSH2 0xEB2 DUP2 DUP6 PUSH2 0xE94 JUMP JUMPDEST SWAP4 POP PUSH2 0xEC2 DUP2 DUP6 PUSH1 0x20 DUP7 ADD PUSH2 0xD5B JUMP JUMPDEST DUP1 DUP5 ADD SWAP2 POP POP SWAP3 SWAP2 POP POP JUMP JUMPDEST PUSH0 PUSH2 0xED9 DUP3 DUP5 PUSH2 0xE9E JUMP JUMPDEST SWAP2 POP DUP2 SWAP1 POP SWAP3 SWAP2 POP POP JUMP JUMPDEST PUSH32 0x45787465726E616C2063616C6C206661696C6564000000000000000000000000 PUSH0 DUP3 ADD MSTORE POP JUMP JUMPDEST PUSH0 PUSH2 0xF18 PUSH1 0x14 DUP4 PUSH2 0x9F2 JUMP JUMPDEST SWAP2 POP PUSH2 0xF23 DUP3 PUSH2 0xEE4 JUMP JUMPDEST PUSH1 0x20 DUP3 ADD SWAP1 POP SWAP2 SWAP1 POP JUMP JUMPDEST PUSH0 PUSH1 0x20 DUP3 ADD SWAP1 POP DUP2 DUP2 SUB PUSH0 DUP4 ADD MSTORE PUSH2 0xF45 DUP2 PUSH2 0xF0C JUMP JUMPDEST SWAP1 POP SWAP2 SWAP1 POP JUMP JUMPDEST PUSH2 0xF55 DUP2 PUSH2 0xB8D JUMP JUMPDEST DUP2 EQ PUSH2 0xF5F JUMPI PUSH0 DUP1 REVERT JUMPDEST POP JUMP JUMPDEST PUSH0 DUP2 MLOAD SWAP1 POP PUSH2 0xF70 DUP2 PUSH2 0xF4C JUMP JUMPDEST SWAP3 SWAP2 POP POP JUMP JUMPDEST PUSH0 PUSH1 0x20 DUP3 DUP5 SUB SLT ISZERO PUSH2 0xF8B JUMPI PUSH2 0xF8A PUSH2 0x87F JUMP JUMPDEST JUMPDEST PUSH0 PUSH2 0xF98 DUP5 DUP3 DUP6 ADD PUSH2 0xF62 JUMP JUMPDEST SWAP2 POP POP SWAP3 SWAP2 POP POP JUMP JUMPDEST PUSH32 0x4E487B7100000000000000000000000000000000000000000000000000000000 PUSH0 MSTORE PUSH1 0x11 PUSH1 0x4 MSTORE PUSH1 0x24 PUSH0 REVERT JUMPDEST PUSH0 PUSH2 0xFD8 DUP3 PUSH2 0xB8D JUMP JUMPDEST SWAP2 POP PUSH32 0xFFFFFFFFFFFFFFFFFFFFFFFFFFFFFFFFFFFFFFFFFFFFFFFFFFFFFFFFFFFFFFFF DUP3 SUB PUSH2 0x100A JUMPI PUSH2 0x1009 PUSH2 0xFA1 JUMP JUMPDEST JUMPDEST PUSH1 0x1 DUP3 ADD SWAP1 POP SWAP2 SWAP1 POP JUMP JUMPDEST PUSH32 0x4E487B7100000000000000000000000000000000000000000000000000000000 PUSH0 MSTORE PUSH1 0x12 PUSH1 0x4 MSTORE PUSH1 0x24 PUSH0 REVERT JUMPDEST PUSH0 PUSH2 0x104C DUP3 PUSH2 0xB8D JUMP JUMPDEST SWAP2 POP PUSH2 0x1057 DUP4 PUSH2 0xB8D JUMP JUMPDEST SWAP3 POP DUP3 PUSH2 0x1067 JUMPI PUSH2 0x1066 PUSH2 0x1015 JUMP JUMPDEST JUMPDEST DUP3 DUP3 DIV SWAP1 POP SWAP3 SWAP2 POP POP JUMP JUMPDEST PUSH32 0x4E487B7100000000000000000000000000000000000000000000000000000000 PUSH0 MSTORE PUSH1 0x41 PUSH1 0x4 MSTORE PUSH1 0x24 PUSH0 REVERT JUMPDEST PUSH0 PUSH2 0x10A9 DUP3 PUSH2 0xB8D JUMP JUMPDEST SWAP2 POP PUSH2 0x10B4 DUP4 PUSH2 0xB8D JUMP JUMPDEST SWAP3 POP DUP3 DUP3 SUB SWAP1 POP DUP2 DUP2 GT ISZERO PUSH2 0x10CC JUMPI PUSH2 0x10CB PUSH2 0xFA1 JUMP JUMPDEST JUMPDEST SWAP3 SWAP2 POP POP JUMP JUMPDEST PUSH0 PUSH2 0x10DC DUP3 PUSH2 0xB8D JUMP JUMPDEST SWAP2 POP PUSH2 0x10E7 DUP4 PUSH2 0xB8D JUMP JUMPDEST SWAP3 POP DUP3 DUP3 MUL PUSH2 0x10F5 DUP2 PUSH2 0xB8D JUMP JUMPDEST SWAP2 POP DUP3 DUP3 DIV DUP5 EQ DUP4 ISZERO OR PUSH2 0x110C JUMPI PUSH2 0x110B PUSH2 0xFA1 JUMP JUMPDEST JUMPDEST POP SWAP3 SWAP2 POP POP JUMP JUMPDEST PUSH0 PUSH1 0xFF DUP3 AND SWAP1 POP SWAP2 SWAP1 POP JUMP JUMPDEST PUSH0 PUSH2 0x1129 DUP3 PUSH2 0x1113 JUMP JUMPDEST SWAP2 POP PUSH2 0x1134 DUP4 PUSH2 0x1113 JUMP JUMPDEST SWAP3 POP DUP3 DUP3 ADD SWAP1 POP PUSH1 0xFF DUP2 GT ISZERO PUSH2 0x114D JUMPI PUSH2 0x114C PUSH2 0xFA1 JUMP JUMPDEST JUMPDEST SWAP3 SWAP2 POP POP JUMP INVALID LOG2 PUSH5 0x6970667358 0x22 SLT KECCAK256 0x4C STOP 0x21 SHL DUP2 PUSH10 0x6B5157A81D47B54C0EB6 0xCE PUSH24 0x7D655FFF82D599DCD1E91767460C64736F6C634300081900 CALLER "
				},
				"gasEstimates": {
					"creation": {
						"codeDepositCost": "897800",
						"executionCost": "25198",
						"totalCost": "922998"
					},
					"external": {
						"admin()": "2527",
						"distribute((address,uint256)[],address)": "infinite",
						"setAdmin(address)": "26915"
					},
					"internal": {
						"balanceOfToken(address)": "infinite",
						"uintToStr(uint256)": "infinite"
					}
				},
				"methodIdentifiers": {
					"admin()": "f851a440",
					"distribute((address,uint256)[],address)": "696d91b3",
					"setAdmin(address)": "704b6c02"
				}
			},
			"storageLayout": {
				"storage": [
					{
						"astId": 20,
						"contract": "contracts/1_Storage.sol:RewardDistributor",
						"label": "admin",
						"offset": 0,
						"slot": "0",
						"type": "t_address"
					}
				],
				"types": {
					"t_address": {
						"encoding": "inplace",
						"label": "address",
						"numberOfBytes": "20"
					}
				}
			},
			"userdoc": {
				"kind": "user",
				"methods": {},
				"version": 1
			}
		}
	}
}